{
  "_format": "hh-sol-artifact-1",
  "contractName": "RDataVesting",
  "sourceName": "contracts/vesting/RDataVesting.sol",
  "abi": [
    {
      "inputs": [
        {
          "internalType": "address",
          "name": "target",
          "type": "address"
        }
      ],
      "name": "AddressEmptyCode",
      "type": "error"
    },
    {
      "inputs": [
        {
          "internalType": "address",
          "name": "account",
          "type": "address"
        }
      ],
      "name": "AddressInsufficientBalance",
      "type": "error"
    },
    {
      "inputs": [],
      "name": "AlreadyClaimed",
      "type": "error"
    },
    {
      "inputs": [],
      "name": "ECDSAInvalidSignature",
      "type": "error"
    },
    {
      "inputs": [
        {
          "internalType": "uint256",
          "name": "length",
          "type": "uint256"
        }
      ],
      "name": "ECDSAInvalidSignatureLength",
      "type": "error"
    },
    {
      "inputs": [
        {
          "internalType": "bytes32",
          "name": "s",
          "type": "bytes32"
        }
      ],
      "name": "ECDSAInvalidSignatureS",
      "type": "error"
    },
    {
      "inputs": [
        {
          "internalType": "address",
          "name": "implementation",
          "type": "address"
        }
      ],
      "name": "ERC1967InvalidImplementation",
      "type": "error"
    },
    {
      "inputs": [],
      "name": "ERC1967NonPayable",
      "type": "error"
    },
    {
      "inputs": [],
      "name": "EnforcedPause",
      "type": "error"
    },
    {
      "inputs": [],
      "name": "ExpectedPause",
      "type": "error"
    },
    {
      "inputs": [],
      "name": "FailedInnerCall",
      "type": "error"
    },
    {
      "inputs": [],
      "name": "InvalidInitialization",
      "type": "error"
    },
    {
      "inputs": [],
      "name": "InvalidSignature",
      "type": "error"
    },
    {
      "inputs": [],
      "name": "NotInitializing",
      "type": "error"
    },
    {
      "inputs": [
        {
          "internalType": "address",
          "name": "owner",
          "type": "address"
        }
      ],
      "name": "OwnableInvalidOwner",
      "type": "error"
    },
    {
      "inputs": [
        {
          "internalType": "address",
          "name": "account",
          "type": "address"
        }
      ],
      "name": "OwnableUnauthorizedAccount",
      "type": "error"
    },
    {
      "inputs": [],
      "name": "ReentrancyGuardReentrantCall",
      "type": "error"
    },
    {
      "inputs": [
        {
          "internalType": "address",
          "name": "token",
          "type": "address"
        }
      ],
      "name": "SafeERC20FailedOperation",
      "type": "error"
    },
    {
      "inputs": [],
      "name": "SignatureExpired",
      "type": "error"
    },
    {
      "inputs": [],
      "name": "UUPSUnauthorizedCallContext",
      "type": "error"
    },
    {
      "inputs": [
        {
          "internalType": "bytes32",
          "name": "slot",
          "type": "bytes32"
        }
      ],
      "name": "UUPSUnsupportedProxiableUUID",
      "type": "error"
    },
    {
      "anonymous": false,
      "inputs": [
        {
          "indexed": true,
          "internalType": "uint256",
          "name": "userId",
          "type": "uint256"
        },
        {
          "indexed": true,
          "internalType": "address",
          "name": "receiveAddress",
          "type": "address"
        },
        {
          "indexed": false,
          "internalType": "uint256",
          "name": "claimAmount",
          "type": "uint256"
        },
        {
          "indexed": false,
          "internalType": "uint256",
          "name": "totalAmount",
          "type": "uint256"
        }
      ],
      "name": "Claimed",
      "type": "event"
    },
    {
      "anonymous": false,
      "inputs": [
        {
          "indexed": false,
          "internalType": "uint64",
          "name": "version",
          "type": "uint64"
        }
      ],
      "name": "Initialized",
      "type": "event"
    },
    {
      "anonymous": false,
      "inputs": [
        {
          "indexed": true,
          "internalType": "address",
          "name": "previousOwner",
          "type": "address"
        },
        {
          "indexed": true,
          "internalType": "address",
          "name": "newOwner",
          "type": "address"
        }
      ],
      "name": "OwnershipTransferred",
      "type": "event"
    },
    {
      "anonymous": false,
      "inputs": [
        {
          "indexed": false,
          "internalType": "address",
          "name": "account",
          "type": "address"
        }
      ],
      "name": "Paused",
      "type": "event"
    },
    {
      "anonymous": false,
      "inputs": [
        {
          "indexed": false,
          "internalType": "address",
          "name": "account",
          "type": "address"
        }
      ],
      "name": "Unpaused",
      "type": "event"
    },
    {
      "anonymous": false,
      "inputs": [
        {
          "indexed": true,
          "internalType": "address",
          "name": "implementation",
          "type": "address"
        }
      ],
      "name": "Upgraded",
      "type": "event"
    },
    {
      "inputs": [],
      "name": "UPGRADE_INTERFACE_VERSION",
      "outputs": [
        {
          "internalType": "string",
          "name": "",
          "type": "string"
        }
      ],
      "stateMutability": "view",
      "type": "function"
    },
    {
      "inputs": [
        {
          "internalType": "uint256",
          "name": "_userId",
          "type": "uint256"
        },
        {
          "internalType": "address",
          "name": "_receiveAddress",
          "type": "address"
        },
        {
          "internalType": "uint256",
          "name": "_amount",
          "type": "uint256"
        },
        {
          "internalType": "uint256",
          "name": "_deadline",
          "type": "uint256"
        },
        {
          "internalType": "bytes",
          "name": "_signatures",
          "type": "bytes"
        }
      ],
      "name": "claim",
      "outputs": [],
      "stateMutability": "nonpayable",
      "type": "function"
    },
    {
      "inputs": [],
      "name": "getVersion",
      "outputs": [
        {
          "internalType": "uint256",
          "name": "",
          "type": "uint256"
        }
      ],
      "stateMutability": "pure",
      "type": "function"
    },
    {
      "inputs": [
        {
          "internalType": "address",
          "name": "_rdatAddress",
          "type": "address"
        },
        {
          "internalType": "address",
          "name": "_signerWalletAddress",
          "type": "address"
        }
      ],
      "name": "initialize",
      "outputs": [],
      "stateMutability": "nonpayable",
      "type": "function"
    },
    {
      "inputs": [],
      "name": "owner",
      "outputs": [
        {
          "internalType": "address",
          "name": "",
          "type": "address"
        }
      ],
      "stateMutability": "view",
      "type": "function"
    },
    {
      "inputs": [],
      "name": "pause",
      "outputs": [],
      "stateMutability": "nonpayable",
      "type": "function"
    },
    {
      "inputs": [],
      "name": "paused",
      "outputs": [
        {
          "internalType": "bool",
          "name": "",
          "type": "bool"
        }
      ],
      "stateMutability": "view",
      "type": "function"
    },
    {
      "inputs": [],
      "name": "proxiableUUID",
      "outputs": [
        {
          "internalType": "bytes32",
          "name": "",
          "type": "bytes32"
        }
      ],
      "stateMutability": "view",
      "type": "function"
    },
    {
      "inputs": [],
      "name": "rdat",
      "outputs": [
        {
          "internalType": "contract IERC20",
          "name": "",
          "type": "address"
        }
      ],
      "stateMutability": "view",
      "type": "function"
    },
    {
      "inputs": [],
      "name": "renounceOwnership",
      "outputs": [],
      "stateMutability": "nonpayable",
      "type": "function"
    },
    {
      "inputs": [],
      "name": "signerWalletAddress",
      "outputs": [
        {
          "internalType": "address",
          "name": "",
          "type": "address"
        }
      ],
      "stateMutability": "view",
      "type": "function"
    },
    {
      "inputs": [
        {
          "internalType": "address",
          "name": "newOwner",
          "type": "address"
        }
      ],
      "name": "transferOwnership",
      "outputs": [],
      "stateMutability": "nonpayable",
      "type": "function"
    },
    {
      "inputs": [],
      "name": "unpause",
      "outputs": [],
      "stateMutability": "nonpayable",
      "type": "function"
    },
    {
      "inputs": [
        {
          "internalType": "address",
          "name": "_newSignerWalletAddress",
          "type": "address"
        }
      ],
      "name": "updateSignerWalletAddress",
      "outputs": [],
      "stateMutability": "nonpayable",
      "type": "function"
    },
    {
      "inputs": [
        {
          "internalType": "address",
          "name": "newImplementation",
          "type": "address"
        },
        {
          "internalType": "bytes",
          "name": "data",
          "type": "bytes"
        }
      ],
      "name": "upgradeToAndCall",
      "outputs": [],
      "stateMutability": "payable",
      "type": "function"
    },
    {
      "inputs": [
        {
          "internalType": "uint256",
          "name": "",
          "type": "uint256"
        }
      ],
      "name": "userClamAmounts",
      "outputs": [
        {
          "internalType": "uint256",
          "name": "",
          "type": "uint256"
        }
      ],
      "stateMutability": "view",
      "type": "function"
    }
  ],
  "bytecode": "0x60a06040523060805234801561001457600080fd5b5060805161143b61003e600039600081816109160152818161093f0152610a80015261143b6000f3fe6080604052600436106100f35760003560e01c8063715018a61161008a578063ad3cb1cc11610059578063ad3cb1cc14610289578063af2bc438146102c7578063bbc7a6d4146102e7578063f2fde38b1461031457600080fd5b8063715018a6146102025780638456cb59146102175780638da5cb5b1461022c5780639f2b30cf1461026957600080fd5b806349be02a7116100c657806349be02a7146101725780634f1ef286146101aa57806352d1902d146101bd5780635c975abb146101d257600080fd5b80630d8e6e2c146100f85780632e4dbe8f1461011b5780633f4ba83a1461013d578063485cc95514610152575b600080fd5b34801561010457600080fd5b5060015b6040519081526020015b60405180910390f35b34801561012757600080fd5b5061013b610136366004611102565b610334565b005b34801561014957600080fd5b5061013b6104e9565b34801561015e57600080fd5b5061013b61016d3660046111a1565b6104fb565b34801561017e57600080fd5b50600154610192906001600160a01b031681565b6040516001600160a01b039091168152602001610112565b61013b6101b83660046111ea565b610654565b3480156101c957600080fd5b50610108610673565b3480156101de57600080fd5b506000805160206113e68339815191525460ff166040519015158152602001610112565b34801561020e57600080fd5b5061013b610690565b34801561022357600080fd5b5061013b6106a2565b34801561023857600080fd5b507f9016d09d72d40fdae2fd8ceac6b6234c7706214fd39c1cd1e609a0528c199300546001600160a01b0316610192565b34801561027557600080fd5b50600054610192906001600160a01b031681565b34801561029557600080fd5b506102ba604051806040016040528060058152602001640352e302e360dc1b81525081565b60405161011291906112d0565b3480156102d357600080fd5b5061013b6102e2366004611303565b6106b2565b3480156102f357600080fd5b5061010861030236600461131e565b60026020526000908152604090205481565b34801561032057600080fd5b5061013b61032f366004611303565b6106dc565b61033c61071f565b60408051602081018890526bffffffffffffffffffffffff19606088901b169181019190915260548101859052607481018490526000906094016040516020818303038152906040528051906020012090506103d983838080601f0160208091040260200160405190810160405280939291908181526020018383808284376000920191909152506103d392508591506107509050565b90610783565b6000546001600160a01b0390811691161461040757604051638baa579f60e01b815260040160405180910390fd5b600087815260026020526040902054851161043557604051630c8d9eab60e31b815260040160405180910390fd5b42841161045557604051630819bdcd60e01b815260040160405180910390fd5b60008781526002602052604081205461046e9087611337565b6000898152600260205260409020879055600154909150610499906001600160a01b031688836107af565b60408051828152602081018890526001600160a01b038916918a917fd9cb1e2714d65a111c0f20f060176ad657496bd47a3de04ec7c3d4ca232112ac910160405180910390a35050505050505050565b6104f1610806565b6104f9610861565b565b7ff0c57e16840df040f15088dc2f81fe391c3923bec73e23a9662efc9c229c6a008054600160401b810460ff16159067ffffffffffffffff166000811580156105415750825b905060008267ffffffffffffffff16600114801561055e5750303b155b90508115801561056c575080155b1561058a5760405163f92ee8a960e01b815260040160405180910390fd5b845467ffffffffffffffff1916600117855583156105b457845460ff60401b1916600160401b1785555b6105bd336108c1565b6105c56108d2565b6105cd6108da565b6105d56108ea565b600180546001600160a01b03808a166001600160a01b0319928316179092556000805492891692909116919091179055831561064b57845460ff60401b19168555604051600181527fc7f505b2f371ae2175ee4913f4499e1f2633a7b5936321eed1cdaeb6115181d29060200160405180910390a15b50505050505050565b61065c61090b565b610665826109b0565b61066f82826109b8565b5050565b600061067d610a75565b506000805160206113c683398151915290565b610698610806565b6104f96000610abe565b6106aa610806565b6104f9610b2f565b6106ba610806565b600080546001600160a01b0319166001600160a01b0392909216919091179055565b6106e4610806565b6001600160a01b03811661071357604051631e4fbdf760e01b8152600060048201526024015b60405180910390fd5b61071c81610abe565b50565b6000805160206113e68339815191525460ff16156104f95760405163d93c066560e01b815260040160405180910390fd5b7f19457468657265756d205369676e6564204d6573736167653a0a3332000000006000908152601c91909152603c902090565b6000806000806107938686610b78565b9250925092506107a38282610bc5565b50909150505b92915050565b604080516001600160a01b038416602482015260448082018490528251808303909101815260649091019091526020810180516001600160e01b031663a9059cbb60e01b179052610801908490610c7e565b505050565b336108387f9016d09d72d40fdae2fd8ceac6b6234c7706214fd39c1cd1e609a0528c199300546001600160a01b031690565b6001600160a01b0316146104f95760405163118cdaa760e01b815233600482015260240161070a565b610869610ce1565b6000805160206113e6833981519152805460ff191681557f5db9ee0a495bf2e6ff9c91a7834c1ba4fdd244a5e8aa4e537bd38aeae4b073aa335b6040516001600160a01b03909116815260200160405180910390a150565b6108c9610d11565b61071c81610d5a565b6104f9610d11565b6108e2610d11565b6104f9610d62565b6108f2610d11565b6000805160206113e6833981519152805460ff19169055565b306001600160a01b037f000000000000000000000000000000000000000000000000000000000000000016148061099257507f00000000000000000000000000000000000000000000000000000000000000006001600160a01b03166109866000805160206113c6833981519152546001600160a01b031690565b6001600160a01b031614155b156104f95760405163703e46dd60e11b815260040160405180910390fd5b61071c610806565b816001600160a01b03166352d1902d6040518163ffffffff1660e01b8152600401602060405180830381865afa925050508015610a12575060408051601f3d908101601f19168201909252610a0f91810190611358565b60015b610a3a57604051634c9c8ce360e01b81526001600160a01b038316600482015260240161070a565b6000805160206113c68339815191528114610a6b57604051632a87526960e21b81526004810182905260240161070a565b6108018383610d90565b306001600160a01b037f000000000000000000000000000000000000000000000000000000000000000016146104f95760405163703e46dd60e11b815260040160405180910390fd5b7f9016d09d72d40fdae2fd8ceac6b6234c7706214fd39c1cd1e609a0528c19930080546001600160a01b031981166001600160a01b03848116918217845560405192169182907f8be0079c531659141344cd1fd0a4f28419497f9722a3daafe3b4186f6b6457e090600090a3505050565b610b3761071f565b6000805160206113e6833981519152805460ff191660011781557f62e78cea01bee320cd4e420270b5ea74000d11b0c9f74754ebdbfc544b05a258336108a3565b60008060008351604103610bb25760208401516040850151606086015160001a610ba488828585610de6565b955095509550505050610bbe565b50508151600091506002905b9250925092565b6000826003811115610bd957610bd9611371565b03610be2575050565b6001826003811115610bf657610bf6611371565b03610c145760405163f645eedf60e01b815260040160405180910390fd5b6002826003811115610c2857610c28611371565b03610c495760405163fce698f760e01b81526004810182905260240161070a565b6003826003811115610c5d57610c5d611371565b0361066f576040516335e2f38360e21b81526004810182905260240161070a565b6000610c936001600160a01b03841683610eb5565b90508051600014158015610cb8575080806020019051810190610cb69190611387565b155b1561080157604051635274afe760e01b81526001600160a01b038416600482015260240161070a565b6000805160206113e68339815191525460ff166104f957604051638dfc202b60e01b815260040160405180910390fd5b7ff0c57e16840df040f15088dc2f81fe391c3923bec73e23a9662efc9c229c6a0054600160401b900460ff166104f957604051631afcd79f60e31b815260040160405180910390fd5b6106e4610d11565b610d6a610d11565b60017f9b779b17422d0df92223018b32b4d1fa46e071723d6817e2486d003becc55f0055565b610d9982610eca565b6040516001600160a01b038316907fbc7cd75a20ee27fd9adebab32041f755214dbc6bffa90cc0225b39da2e5c2d3b90600090a2805115610dde576108018282610f2f565b61066f610fa5565b600080807f7fffffffffffffffffffffffffffffff5d576e7357a4501ddfe92f46681b20a0841115610e215750600091506003905082610eab565b604080516000808252602082018084528a905260ff891692820192909252606081018790526080810186905260019060a0016020604051602081039080840390855afa158015610e75573d6000803e3d6000fd5b5050604051601f1901519150506001600160a01b038116610ea157506000925060019150829050610eab565b9250600091508190505b9450945094915050565b6060610ec383836000610fc4565b9392505050565b806001600160a01b03163b600003610f0057604051634c9c8ce360e01b81526001600160a01b038216600482015260240161070a565b6000805160206113c683398151915280546001600160a01b0319166001600160a01b0392909216919091179055565b6060600080846001600160a01b031684604051610f4c91906113a9565b600060405180830381855af49150503d8060008114610f87576040519150601f19603f3d011682016040523d82523d6000602084013e610f8c565b606091505b5091509150610f9c858383611061565b95945050505050565b34156104f95760405163b398979f60e01b815260040160405180910390fd5b606081471015610fe95760405163cd78605960e01b815230600482015260240161070a565b600080856001600160a01b0316848660405161100591906113a9565b60006040518083038185875af1925050503d8060008114611042576040519150601f19603f3d011682016040523d82523d6000602084013e611047565b606091505b5091509150611057868383611061565b9695505050505050565b60608261107657611071826110bd565b610ec3565b815115801561108d57506001600160a01b0384163b155b156110b657604051639996b31560e01b81526001600160a01b038516600482015260240161070a565b5080610ec3565b8051156110cd5780518082602001fd5b604051630a12f52160e11b815260040160405180910390fd5b80356001600160a01b03811681146110fd57600080fd5b919050565b60008060008060008060a0878903121561111b57600080fd5b8635955061112b602088016110e6565b94506040870135935060608701359250608087013567ffffffffffffffff8082111561115657600080fd5b818901915089601f83011261116a57600080fd5b81358181111561117957600080fd5b8a602082850101111561118b57600080fd5b6020830194508093505050509295509295509295565b600080604083850312156111b457600080fd5b6111bd836110e6565b91506111cb602084016110e6565b90509250929050565b634e487b7160e01b600052604160045260246000fd5b600080604083850312156111fd57600080fd5b611206836110e6565b9150602083013567ffffffffffffffff8082111561122357600080fd5b818501915085601f83011261123757600080fd5b813581811115611249576112496111d4565b604051601f8201601f19908116603f01168101908382118183101715611271576112716111d4565b8160405282815288602084870101111561128a57600080fd5b8260208601602083013760006020848301015280955050505050509250929050565b60005b838110156112c75781810151838201526020016112af565b50506000910152565b60208152600082518060208401526112ef8160408501602087016112ac565b601f01601f19169190910160400192915050565b60006020828403121561131557600080fd5b610ec3826110e6565b60006020828403121561133057600080fd5b5035919050565b818103818111156107a957634e487b7160e01b600052601160045260246000fd5b60006020828403121561136a57600080fd5b5051919050565b634e487b7160e01b600052602160045260246000fd5b60006020828403121561139957600080fd5b81518015158114610ec357600080fd5b600082516113bb8184602087016112ac565b919091019291505056fe360894a13ba1a3210667c828492db98dca3e2076cc3735a920a3ca505d382bbccd5ed15c6e187e77e9aee88184c21f4f2182ab5827cb3b7e07fbedcd63f03300a2646970667358221220d300adb3ef4bd62694ed88e9ef04ddc07c6297f9bc1665d45853fe803e7f59e064736f6c63430008180033",
  "linkReferences": {},
  "deployedLinkReferences": {}
}