{"contracts/referralStaking/RDataReferralStaking.sol":{"RDataReferralStaking":{"abi":[{"inputs":[{"internalType":"address","name":"target","type":"address"}],"name":"AddressEmptyCode","type":"error"},{"inputs":[{"internalType":"address","name":"account","type":"address"}],"name":"AddressInsufficientBalance","type":"error"},{"inputs":[],"name":"AlreadyStaked","type":"error"},{"inputs":[],"name":"AlreadyUnstaked","type":"error"},{"inputs":[{"internalType":"address","name":"implementation","type":"address"}],"name":"ERC1967InvalidImplementation","type":"error"},{"inputs":[],"name":"ERC1967NonPayable","type":"error"},{"inputs":[],"name":"EnforcedPause","type":"error"},{"inputs":[],"name":"ExpectedPause","type":"error"},{"inputs":[],"name":"FailedInnerCall","type":"error"},{"inputs":[],"name":"InvalidInitialization","type":"error"},{"inputs":[],"name":"InvalidSignature","type":"error"},{"inputs":[],"name":"InvalidStakeAmount","type":"error"},{"inputs":[],"name":"InvalidUnstakeAmount","type":"error"},{"inputs":[],"name":"NotInitializing","type":"error"},{"inputs":[],"name":"NothingToUnstake","type":"error"},{"inputs":[{"internalType":"address","name":"owner","type":"address"}],"name":"OwnableInvalidOwner","type":"error"},{"inputs":[{"internalType":"address","name":"account","type":"address"}],"name":"OwnableUnauthorizedAccount","type":"error"},{"inputs":[],"name":"ReentrancyGuardReentrantCall","type":"error"},{"inputs":[{"internalType":"address","name":"token","type":"address"}],"name":"SafeERC20FailedOperation","type":"error"},{"inputs":[],"name":"UUPSUnauthorizedCallContext","type":"error"},{"inputs":[{"internalType":"bytes32","name":"slot","type":"bytes32"}],"name":"UUPSUnsupportedProxiableUUID","type":"error"},{"anonymous":false,"inputs":[{"indexed":false,"internalType":"uint64","name":"version","type":"uint64"}],"name":"Initialized","type":"event"},{"anonymous":false,"inputs":[{"indexed":true,"internalType":"address","name":"previousOwner","type":"address"},{"indexed":true,"internalType":"address","name":"newOwner","type":"address"}],"name":"OwnershipTransferred","type":"event"},{"anonymous":false,"inputs":[{"indexed":false,"internalType":"address","name":"account","type":"address"}],"name":"Paused","type":"event"},{"anonymous":false,"inputs":[{"indexed":true,"internalType":"address","name":"stakerAddress","type":"address"},{"indexed":false,"internalType":"uint256","name":"amount","type":"uint256"},{"indexed":false,"internalType":"uint256","name":"totalAmount","type":"uint256"}],"name":"Staked","type":"event"},{"anonymous":false,"inputs":[{"indexed":false,"internalType":"address","name":"account","type":"address"}],"name":"Unpaused","type":"event"},{"anonymous":false,"inputs":[{"indexed":true,"internalType":"address","name":"stakerAddress","type":"address"},{"indexed":false,"internalType":"uint256","name":"amount","type":"uint256"}],"name":"Unstaked","type":"event"},{"anonymous":false,"inputs":[{"indexed":true,"internalType":"address","name":"implementation","type":"address"}],"name":"Upgraded","type":"event"},{"inputs":[],"name":"UPGRADE_INTERFACE_VERSION","outputs":[{"internalType":"string","name":"","type":"string"}],"stateMutability":"view","type":"function"},{"inputs":[{"internalType":"address","name":"_rdatAddress","type":"address"},{"internalType":"address","name":"_signerWalletAddress","type":"address"},{"internalType":"address","name":"_ownerAddress","type":"address"},{"internalType":"uint256","name":"_minStakeAmount","type":"uint256"}],"name":"initialize","outputs":[],"stateMutability":"nonpayable","type":"function"},{"inputs":[],"name":"minStakeAmount","outputs":[{"internalType":"uint256","name":"","type":"uint256"}],"stateMutability":"view","type":"function"},{"inputs":[],"name":"owner","outputs":[{"internalType":"address","name":"","type":"address"}],"stateMutability":"view","type":"function"},{"inputs":[],"name":"pause","outputs":[],"stateMutability":"nonpayable","type":"function"},{"inputs":[],"name":"paused","outputs":[{"internalType":"bool","name":"","type":"bool"}],"stateMutability":"view","type":"function"},{"inputs":[],"name":"proxiableUUID","outputs":[{"internalType":"bytes32","name":"","type":"bytes32"}],"stateMutability":"view","type":"function"},{"inputs":[],"name":"rdat","outputs":[{"internalType":"contract IERC20","name":"","type":"address"}],"stateMutability":"view","type":"function"},{"inputs":[],"name":"renounceOwnership","outputs":[],"stateMutability":"nonpayable","type":"function"},{"inputs":[],"name":"signerWalletAddress","outputs":[{"internalType":"address","name":"","type":"address"}],"stateMutability":"view","type":"function"},{"inputs":[{"internalType":"uint256","name":"_amount","type":"uint256"}],"name":"stake","outputs":[],"stateMutability":"nonpayable","type":"function"},{"inputs":[{"internalType":"address","name":"","type":"address"}],"name":"stakers","outputs":[{"internalType":"uint256","name":"amount","type":"uint256"},{"internalType":"uint256","name":"unstakedAmount","type":"uint256"}],"stateMutability":"view","type":"function"},{"inputs":[{"internalType":"address","name":"newOwner","type":"address"}],"name":"transferOwnership","outputs":[],"stateMutability":"nonpayable","type":"function"},{"inputs":[],"name":"unpause","outputs":[],"stateMutability":"nonpayable","type":"function"},{"inputs":[{"internalType":"address","name":"_stakerAddress","type":"address"},{"internalType":"uint256","name":"_amount","type":"uint256"},{"internalType":"bytes","name":"_signatures","type":"bytes"}],"name":"unstake","outputs":[],"stateMutability":"nonpayable","type":"function"},{"inputs":[{"internalType":"address","name":"_newSignerWalletAddress","type":"address"}],"name":"updateSignerWalletAddress","outputs":[],"stateMutability":"nonpayable","type":"function"},{"inputs":[{"internalType":"address","name":"newImplementation","type":"address"},{"internalType":"bytes","name":"data","type":"bytes"}],"name":"upgradeToAndCall","outputs":[],"stateMutability":"payable","type":"function"},{"inputs":[{"internalType":"address","name":"userAddress","type":"address"}],"name":"votingPower","outputs":[{"internalType":"uint256","name":"","type":"uint256"}],"stateMutability":"view","type":"function"}],"devdoc":{"errors":{"AddressEmptyCode(address)":[{"details":"There's no code at `target` (it is not a contract)."}],"AddressInsufficientBalance(address)":[{"details":"The ETH balance of the account is not enough to perform the operation."}],"ERC1967InvalidImplementation(address)":[{"details":"The `implementation` of the proxy is invalid."}],"ERC1967NonPayable()":[{"details":"An upgrade function sees `msg.value > 0` that may be lost."}],"EnforcedPause()":[{"details":"The operation failed because the contract is paused."}],"ExpectedPause()":[{"details":"The operation failed because the contract is not paused."}],"FailedInnerCall()":[{"details":"A call to an address target failed. The target may have reverted."}],"InvalidInitialization()":[{"details":"The contract is already initialized."}],"NotInitializing()":[{"details":"The contract is not initializing."}],"OwnableInvalidOwner(address)":[{"details":"The owner is not a valid owner account. (eg. `address(0)`)"}],"OwnableUnauthorizedAccount(address)":[{"details":"The caller account is not authorized to perform an operation."}],"ReentrancyGuardReentrantCall()":[{"details":"Unauthorized reentrant call."}],"SafeERC20FailedOperation(address)":[{"details":"An operation with an ERC20 token failed."}],"UUPSUnauthorizedCallContext()":[{"details":"The call is from an unauthorized context."}],"UUPSUnsupportedProxiableUUID(bytes32)":[{"details":"The storage `slot` is unsupported as a UUID."}]},"events":{"Initialized(uint64)":{"details":"Triggered when the contract has been initialized or reinitialized."},"Paused(address)":{"details":"Emitted when the pause is triggered by `account`."},"Staked(address,uint256,uint256)":{"params":{"amount":"amount staked in this call","stakerAddress":"address of the staker","totalAmount":"total amount staked by the user"}},"Unpaused(address)":{"details":"Emitted when the pause is lifted by `account`."},"Unstaked(address,uint256)":{"params":{"amount":"amount unstaked","stakerAddress":"address of the staker"}},"Upgraded(address)":{"details":"Emitted when the implementation is upgraded."}},"kind":"dev","methods":{"initialize(address,address,address,uint256)":{"params":{"_minStakeAmount":"Minimum amount to stake","_ownerAddress":"Address of the owner","_rdatAddress":"Address of the rdat token","_signerWalletAddress":"Address of the backend wallet"}},"owner()":{"details":"Returns the address of the current owner."},"pause()":{"details":"Pauses the contract"},"paused()":{"details":"Returns true if the contract is paused, and false otherwise."},"proxiableUUID()":{"details":"Implementation of the ERC1822 {proxiableUUID} function. This returns the storage slot used by the implementation. It is used to validate the implementation's compatibility when performing an upgrade. IMPORTANT: A proxy pointing at a proxiable contract should not be considered proxiable itself, because this risks bricking a proxy that upgrades to it, by delegating to itself until out of gas. Thus it is critical that this function revert if invoked through a proxy. This is guaranteed by the `notDelegated` modifier."},"renounceOwnership()":{"details":"Leaves the contract without owner. It will not be possible to call `onlyOwner` functions. Can only be called by the current owner. NOTE: Renouncing ownership will leave the contract without an owner, thereby disabling any functionality that is only available to the owner."},"stake(uint256)":{"params":{"_amount":"amount to be staked"}},"transferOwnership(address)":{"details":"Transfers ownership of the contract to a new account (`newOwner`). Can only be called by the current owner."},"unpause()":{"details":"Unpauses the contract"},"unstake(address,uint256,bytes)":{"params":{"_amount":"amount to be unstaked","_signatures":"backend signature","_stakerAddress":"address of the staker"}},"updateSignerWalletAddress(address)":{"params":{"_newSignerWalletAddress":"address of the new backend wallet"}},"upgradeToAndCall(address,bytes)":{"custom:oz-upgrades-unsafe-allow-reachable":"delegatecall","details":"Upgrade the implementation of the proxy to `newImplementation`, and subsequently execute the function call encoded in `data`. Calls {_authorizeUpgrade}. Emits an {Upgraded} event."},"votingPower(address)":{"params":{"userAddress":"address of the user"}}},"version":1},"evm":{"bytecode":{"linkReferences":{},"object":"60a0806040523461002a5730608052610f88908161003082396080518181816109350152610a140152f35b600080fdfe60406080815260048036101561001457600080fd5b600091823560e01c9182633f4ba83a14610bfc57826349be02a714610bd35782634f1ef2861461099957826352d1902d146109205782635c975abb146108ef578263715018a6146108855782638456cb591461081d5782638da5cb5b146107e75782639168ae72146107a55782639f2b30cf1461077d578263a694fc3a14610623578263ad3cb1cc14610583578263af2bc43814610543578263c07473f614610494578263c4113b881461031e578263cf756fdf1461013b57508163f188768414610118575063f2fde38b146100e957600080fd5b3461011557602036600319011261011557610112610105610c75565b61010d610d58565b610ce4565b80f35b80fd5b9050346101375781600319360112610137576020906003549051908152f35b5080fd5b9091503461031a57608036600319011261031a57610157610c75565b6001600160a01b0391906024358381169081900361031657604435918483168303610312577ff0c57e16840df040f15088dc2f81fe391c3923bec73e23a9662efc9c229c6a009485549360ff85891c16159467ffffffffffffffff81169687158061030b575b60018099149081610301575b1590816102f8575b506102ea575067ffffffffffffffff198116871788556102039190866102cb575b506101fb610e3e565b61010d610e3e565b61020b610e3e565b610213610e3e565b61021b610e3e565b847f9b779b17422d0df92223018b32b4d1fa46e071723d6817e2486d003becc55f0055610246610e3e565b600080516020610f3383398151915260ff1981541690556bffffffffffffffffffffffff60a01b91168185541617845586541617855560643560035561028a578380f35b7fc7f505b2f371ae2175ee4913f4499e1f2633a7b5936321eed1cdaeb6115181d29260209268ff000000000000000019815416905551908152a13880808380f35b68ffffffffffffffffff191668010000000000000001178855386101f2565b895163f92ee8a960e01b8152fd5b905015386101d1565b303b1591506101c9565b50866101bd565b8680fd5b8580fd5b8280fd5b91503461031a57606036600319011261031a57610339610c75565b602435919067ffffffffffffffff906044358281116103125736602382011215610312578086013583811161049057369101602401116103165761037b610d91565b60018060a01b039182821695868852600260205284882093600185019485546104805787905403610471578551936bffffffffffffffffffffffff199060601b1660208501528660348501526034845260608401948486108487111761045e5787905560015463a9059cbb60e01b60808601526084850189905260a4850188905260448652169260e0019182118483101761044b57507f0f5bb82176feb1b5e747e28471aa92156a04d9f3ab9f45f28e2d704232b93f75949284926104439260209652610dbc565b51908152a280f35b634e487b7160e01b885260419052602487fd5b634e487b7160e01b8a526041835260248afd5b5084516314fea1a960e11b8152fd5b8651636c18a98960e11b81528390fd5b8780fd5b908334610115576020366003190112610115576001600160a01b036104b7610c75565b168152600260205281812090825183810181811067ffffffffffffffff82111761053057906020918552600184549485835201549182910152808311600014610523578203918211610510575060209250905b51908152f35b634e487b7160e01b815260118452602490fd5b509050602092509061050a565b634e487b7160e01b835260418652602483fd5b83346101155760203660031901126101155761055d610c75565b610565610d58565b81546001600160a01b0319166001600160a01b039190911617815580f35b9091503461031a578260031936011261031a578151908282019082821067ffffffffffffffff8311176106105750825260058152602090640352e302e360dc1b6020820152825193849260208452825192836020860152825b8481106105fa57505050828201840152601f01601f19168101030190f35b81810183015188820188015287955082016105dc565b634e487b7160e01b855260419052602484fd5b838234610137576020366003190112610137578235610640610d91565b7f9b779b17422d0df92223018b32b4d1fa46e071723d6817e2486d003becc55f0091600283541461076e57600283553384526002602052808420600354831061075e57600181015461074e5760015482516323b872dd60e01b602082015233602482015230604482015260648082018690528152906001600160a01b031660a0820167ffffffffffffffff81118382101761073b5784526106e19190610dbc565b80549083820180921161072857819055815192835260208301526001929133917f1449c6dd7851abc30abf37f57715f492010519147cc2652fbc38202c18a6ee9091a25580f35b634e487b7160e01b865260118752602486fd5b634e487b7160e01b885260418952602488fd5b8151636c18a98960e11b81528690fd5b8151630103be3b60e21b81528690fd5b51633ee5aeb560e01b81528490fd5b838234610137578160031936011261013757905490516001600160a01b039091168152602090f35b838234610137576020366003190112610137579081906001600160a01b036107cb610c75565b1681526002602052206001815491015482519182526020820152f35b838234610137578160031936011261013757600080516020610f138339815191525490516001600160a01b039091168152602090f35b83823461013757816003193601126101375760207f62e78cea01bee320cd4e420270b5ea74000d11b0c9f74754ebdbfc544b05a2589161085b610d58565b610863610d91565b600080516020610f33833981519152805460ff1916600117905551338152a180f35b833461011557806003193601126101155761089e610d58565b600080516020610f1383398151915280546001600160a01b0319811690915581906001600160a01b03167f8be0079c531659141344cd1fd0a4f28419497f9722a3daafe3b4186f6b6457e08280a380f35b83823461013757816003193601126101375760209060ff600080516020610f33833981519152541690519015158152f35b908334610115578060031936011261011557507f00000000000000000000000000000000000000000000000000000000000000006001600160a01b0316300361098c57602090517f360894a13ba1a3210667c828492db98dca3e2076cc3735a920a3ca505d382bbc8152f35b5163703e46dd60e11b8152fd5b91508060031936011261031a576109ae610c75565b90602493843567ffffffffffffffff811161013757366023820112156101375780850135936109dc85610cc8565b6109e885519182610c90565b85815260209586820193368a8383010111610316578186928b8a93018737830101526001600160a01b037f00000000000000000000000000000000000000000000000000000000000000008116308114908115610ba5575b50610b9557610a4d610d58565b85516352d1902d60e01b81529083169680828a818b5afa9182918793610b65575b5050610a8a5750505050505191634c9c8ce360e01b8352820152fd5b86899689927f360894a13ba1a3210667c828492db98dca3e2076cc3735a920a3ca505d382bbc90818103610b505750853b15610b3b5780546001600160a01b0319168317905551869392917fbc7cd75a20ee27fd9adebab32041f755214dbc6bffa90cc0225b39da2e5c2d3b8580a2825115610b1f575050610b1b9382915190845af4610b15610e7f565b91610eaf565b5080f35b93509350505034610b2f57505080f35b63b398979f60e01b8152fd5b5051634c9c8ce360e01b815291820152859150fd5b848a91845191632a87526960e21b8352820152fd5b9080929350813d8311610b8e575b610b7d8183610c90565b810103126103165751903880610a6e565b503d610b73565b855163703e46dd60e11b81528890fd5b9050817f360894a13ba1a3210667c828492db98dca3e2076cc3735a920a3ca505d382bbc5416141538610a40565b83823461013757816003193601126101375760015490516001600160a01b039091168152602090f35b9091503461031a578260031936011261031a57610c17610d58565b600080516020610f338339815191529081549060ff821615610c67575060ff19169055513381527f5db9ee0a495bf2e6ff9c91a7834c1ba4fdd244a5e8aa4e537bd38aeae4b073aa90602090a180f35b8351638dfc202b60e01b8152fd5b600435906001600160a01b0382168203610c8b57565b600080fd5b90601f8019910116810190811067ffffffffffffffff821117610cb257604052565b634e487b7160e01b600052604160045260246000fd5b67ffffffffffffffff8111610cb257601f01601f191660200190565b6001600160a01b03908116908115610d3f57600080516020610f1383398151915280546001600160a01b031981168417909155167f8be0079c531659141344cd1fd0a4f28419497f9722a3daafe3b4186f6b6457e0600080a3565b604051631e4fbdf760e01b815260006004820152602490fd5b600080516020610f13833981519152546001600160a01b03163303610d7957565b60405163118cdaa760e01b8152336004820152602490fd5b60ff600080516020610f338339815191525416610daa57565b60405163d93c066560e01b8152600490fd5b60018060a01b031690610de6600080836020829551910182875af1610ddf610e7f565b9084610eaf565b908151918215159283610e16575b505050610dfe5750565b60249060405190635274afe760e01b82526004820152fd5b8192935090602091810103126101375760200151908115918215036101155750388080610df4565b60ff7ff0c57e16840df040f15088dc2f81fe391c3923bec73e23a9662efc9c229c6a005460401c1615610e6d57565b604051631afcd79f60e31b8152600490fd5b3d15610eaa573d90610e9082610cc8565b91610e9e6040519384610c90565b82523d6000602084013e565b606090565b90610ed65750805115610ec457805190602001fd5b604051630a12f52160e11b8152600490fd5b81511580610f09575b610ee7575090565b604051639996b31560e01b81526001600160a01b039091166004820152602490fd5b50803b15610edf56fe9016d09d72d40fdae2fd8ceac6b6234c7706214fd39c1cd1e609a0528c199300cd5ed15c6e187e77e9aee88184c21f4f2182ab5827cb3b7e07fbedcd63f03300a2646970667358221220bc43b2414986a103bafef7c20f08cd84b6a2c811fc9ad7b1bfb4a23838ee5add64736f6c63430008180033","opcodes":"PUSH1 0xA0 DUP1 PUSH1 0x40 MSTORE CALLVALUE PUSH2 0x2A JUMPI ADDRESS PUSH1 0x80 MSTORE PUSH2 0xF88 SWAP1 DUP2 PUSH2 0x30 DUP3 CODECOPY PUSH1 0x80 MLOAD DUP2 DUP2 DUP2 PUSH2 0x935 ADD MSTORE PUSH2 0xA14 ADD MSTORE RETURN JUMPDEST PUSH1 0x0 DUP1 REVERT INVALID PUSH1 0x40 PUSH1 0x80 DUP2 MSTORE PUSH1 0x4 DUP1 CALLDATASIZE LT ISZERO PUSH2 0x14 JUMPI PUSH1 0x0 DUP1 REVERT JUMPDEST PUSH1 0x0 SWAP2 DUP3 CALLDATALOAD PUSH1 0xE0 SHR SWAP2 DUP3 PUSH4 0x3F4BA83A EQ PUSH2 0xBFC JUMPI DUP3 PUSH4 0x49BE02A7 EQ PUSH2 0xBD3 JUMPI DUP3 PUSH4 0x4F1EF286 EQ PUSH2 0x999 JUMPI DUP3 PUSH4 0x52D1902D EQ PUSH2 0x920 JUMPI DUP3 PUSH4 0x5C975ABB EQ PUSH2 0x8EF JUMPI DUP3 PUSH4 0x715018A6 EQ PUSH2 0x885 JUMPI DUP3 PUSH4 0x8456CB59 EQ PUSH2 0x81D JUMPI DUP3 PUSH4 0x8DA5CB5B EQ PUSH2 0x7E7 JUMPI DUP3 PUSH4 0x9168AE72 EQ PUSH2 0x7A5 JUMPI DUP3 PUSH4 0x9F2B30CF EQ PUSH2 0x77D JUMPI DUP3 PUSH4 0xA694FC3A EQ PUSH2 0x623 JUMPI DUP3 PUSH4 0xAD3CB1CC EQ PUSH2 0x583 JUMPI DUP3 PUSH4 0xAF2BC438 EQ PUSH2 0x543 JUMPI DUP3 PUSH4 0xC07473F6 EQ PUSH2 0x494 JUMPI DUP3 PUSH4 0xC4113B88 EQ PUSH2 0x31E JUMPI DUP3 PUSH4 0xCF756FDF EQ PUSH2 0x13B JUMPI POP DUP2 PUSH4 0xF1887684 EQ PUSH2 0x118 JUMPI POP PUSH4 0xF2FDE38B EQ PUSH2 0xE9 JUMPI PUSH1 0x0 DUP1 REVERT JUMPDEST CALLVALUE PUSH2 0x115 JUMPI PUSH1 0x20 CALLDATASIZE PUSH1 0x3 NOT ADD SLT PUSH2 0x115 JUMPI PUSH2 0x112 PUSH2 0x105 PUSH2 0xC75 JUMP JUMPDEST PUSH2 0x10D PUSH2 0xD58 JUMP JUMPDEST PUSH2 0xCE4 JUMP JUMPDEST DUP1 RETURN JUMPDEST DUP1 REVERT JUMPDEST SWAP1 POP CALLVALUE PUSH2 0x137 JUMPI DUP2 PUSH1 0x3 NOT CALLDATASIZE ADD SLT PUSH2 0x137 JUMPI PUSH1 0x20 SWAP1 PUSH1 0x3 SLOAD SWAP1 MLOAD SWAP1 DUP2 MSTORE RETURN JUMPDEST POP DUP1 REVERT JUMPDEST SWAP1 SWAP2 POP CALLVALUE PUSH2 0x31A JUMPI PUSH1 0x80 CALLDATASIZE PUSH1 0x3 NOT ADD SLT PUSH2 0x31A JUMPI PUSH2 0x157 PUSH2 0xC75 JUMP JUMPDEST PUSH1 0x1 PUSH1 0x1 PUSH1 0xA0 SHL SUB SWAP2 SWAP1 PUSH1 0x24 CALLDATALOAD DUP4 DUP2 AND SWAP1 DUP2 SWAP1 SUB PUSH2 0x316 JUMPI PUSH1 0x44 CALLDATALOAD SWAP2 DUP5 DUP4 AND DUP4 SUB PUSH2 0x312 JUMPI PUSH32 0xF0C57E16840DF040F15088DC2F81FE391C3923BEC73E23A9662EFC9C229C6A00 SWAP5 DUP6 SLOAD SWAP4 PUSH1 0xFF DUP6 DUP10 SHR AND ISZERO SWAP5 PUSH8 0xFFFFFFFFFFFFFFFF DUP2 AND SWAP7 DUP8 ISZERO DUP1 PUSH2 0x30B JUMPI JUMPDEST PUSH1 0x1 DUP1 SWAP10 EQ SWAP1 DUP2 PUSH2 0x301 JUMPI JUMPDEST ISZERO SWAP1 DUP2 PUSH2 0x2F8 JUMPI JUMPDEST POP PUSH2 0x2EA JUMPI POP PUSH8 0xFFFFFFFFFFFFFFFF NOT DUP2 AND DUP8 OR DUP9 SSTORE PUSH2 0x203 SWAP2 SWAP1 DUP7 PUSH2 0x2CB JUMPI JUMPDEST POP PUSH2 0x1FB PUSH2 0xE3E JUMP JUMPDEST PUSH2 0x10D PUSH2 0xE3E JUMP JUMPDEST PUSH2 0x20B PUSH2 0xE3E JUMP JUMPDEST PUSH2 0x213 PUSH2 0xE3E JUMP JUMPDEST PUSH2 0x21B PUSH2 0xE3E JUMP JUMPDEST DUP5 PUSH32 0x9B779B17422D0DF92223018B32B4D1FA46E071723D6817E2486D003BECC55F00 SSTORE PUSH2 0x246 PUSH2 0xE3E JUMP JUMPDEST PUSH1 0x0 DUP1 MLOAD PUSH1 0x20 PUSH2 0xF33 DUP4 CODECOPY DUP2 MLOAD SWAP2 MSTORE PUSH1 0xFF NOT DUP2 SLOAD AND SWAP1 SSTORE PUSH12 0xFFFFFFFFFFFFFFFFFFFFFFFF PUSH1 0xA0 SHL SWAP2 AND DUP2 DUP6 SLOAD AND OR DUP5 SSTORE DUP7 SLOAD AND OR DUP6 SSTORE PUSH1 0x64 CALLDATALOAD PUSH1 0x3 SSTORE PUSH2 0x28A JUMPI DUP4 DUP1 RETURN JUMPDEST PUSH32 0xC7F505B2F371AE2175EE4913F4499E1F2633A7B5936321EED1CDAEB6115181D2 SWAP3 PUSH1 0x20 SWAP3 PUSH9 0xFF0000000000000000 NOT DUP2 SLOAD AND SWAP1 SSTORE MLOAD SWAP1 DUP2 MSTORE LOG1 CODESIZE DUP1 DUP1 DUP4 DUP1 RETURN JUMPDEST PUSH9 0xFFFFFFFFFFFFFFFFFF NOT AND PUSH9 0x10000000000000001 OR DUP9 SSTORE CODESIZE PUSH2 0x1F2 JUMP JUMPDEST DUP10 MLOAD PUSH4 0xF92EE8A9 PUSH1 0xE0 SHL DUP2 MSTORE REVERT JUMPDEST SWAP1 POP ISZERO CODESIZE PUSH2 0x1D1 JUMP JUMPDEST ADDRESS EXTCODESIZE ISZERO SWAP2 POP PUSH2 0x1C9 JUMP JUMPDEST POP DUP7 PUSH2 0x1BD JUMP JUMPDEST DUP7 DUP1 REVERT JUMPDEST DUP6 DUP1 REVERT JUMPDEST DUP3 DUP1 REVERT JUMPDEST SWAP2 POP CALLVALUE PUSH2 0x31A JUMPI PUSH1 0x60 CALLDATASIZE PUSH1 0x3 NOT ADD SLT PUSH2 0x31A JUMPI PUSH2 0x339 PUSH2 0xC75 JUMP JUMPDEST PUSH1 0x24 CALLDATALOAD SWAP2 SWAP1 PUSH8 0xFFFFFFFFFFFFFFFF SWAP1 PUSH1 0x44 CALLDATALOAD DUP3 DUP2 GT PUSH2 0x312 JUMPI CALLDATASIZE PUSH1 0x23 DUP3 ADD SLT ISZERO PUSH2 0x312 JUMPI DUP1 DUP7 ADD CALLDATALOAD DUP4 DUP2 GT PUSH2 0x490 JUMPI CALLDATASIZE SWAP2 ADD PUSH1 0x24 ADD GT PUSH2 0x316 JUMPI PUSH2 0x37B PUSH2 0xD91 JUMP JUMPDEST PUSH1 0x1 DUP1 PUSH1 0xA0 SHL SUB SWAP2 DUP3 DUP3 AND SWAP6 DUP7 DUP9 MSTORE PUSH1 0x2 PUSH1 0x20 MSTORE DUP5 DUP9 KECCAK256 SWAP4 PUSH1 0x1 DUP6 ADD SWAP5 DUP6 SLOAD PUSH2 0x480 JUMPI DUP8 SWAP1 SLOAD SUB PUSH2 0x471 JUMPI DUP6 MLOAD SWAP4 PUSH12 0xFFFFFFFFFFFFFFFFFFFFFFFF NOT SWAP1 PUSH1 0x60 SHL AND PUSH1 0x20 DUP6 ADD MSTORE DUP7 PUSH1 0x34 DUP6 ADD MSTORE PUSH1 0x34 DUP5 MSTORE PUSH1 0x60 DUP5 ADD SWAP5 DUP5 DUP7 LT DUP5 DUP8 GT OR PUSH2 0x45E JUMPI DUP8 SWAP1 SSTORE PUSH1 0x1 SLOAD PUSH4 0xA9059CBB PUSH1 0xE0 SHL PUSH1 0x80 DUP7 ADD MSTORE PUSH1 0x84 DUP6 ADD DUP10 SWAP1 MSTORE PUSH1 0xA4 DUP6 ADD DUP9 SWAP1 MSTORE PUSH1 0x44 DUP7 MSTORE AND SWAP3 PUSH1 0xE0 ADD SWAP2 DUP3 GT DUP5 DUP4 LT OR PUSH2 0x44B JUMPI POP PUSH32 0xF5BB82176FEB1B5E747E28471AA92156A04D9F3AB9F45F28E2D704232B93F75 SWAP5 SWAP3 DUP5 SWAP3 PUSH2 0x443 SWAP3 PUSH1 0x20 SWAP7 MSTORE PUSH2 0xDBC JUMP JUMPDEST MLOAD SWAP1 DUP2 MSTORE LOG2 DUP1 RETURN JUMPDEST PUSH4 0x4E487B71 PUSH1 0xE0 SHL DUP9 MSTORE PUSH1 0x41 SWAP1 MSTORE PUSH1 0x24 DUP8 REVERT JUMPDEST PUSH4 0x4E487B71 PUSH1 0xE0 SHL DUP11 MSTORE PUSH1 0x41 DUP4 MSTORE PUSH1 0x24 DUP11 REVERT JUMPDEST POP DUP5 MLOAD PUSH4 0x14FEA1A9 PUSH1 0xE1 SHL DUP2 MSTORE REVERT JUMPDEST DUP7 MLOAD PUSH4 0x6C18A989 PUSH1 0xE1 SHL DUP2 MSTORE DUP4 SWAP1 REVERT JUMPDEST DUP8 DUP1 REVERT JUMPDEST SWAP1 DUP4 CALLVALUE PUSH2 0x115 JUMPI PUSH1 0x20 CALLDATASIZE PUSH1 0x3 NOT ADD SLT PUSH2 0x115 JUMPI PUSH1 0x1 PUSH1 0x1 PUSH1 0xA0 SHL SUB PUSH2 0x4B7 PUSH2 0xC75 JUMP JUMPDEST AND DUP2 MSTORE PUSH1 0x2 PUSH1 0x20 MSTORE DUP2 DUP2 KECCAK256 SWAP1 DUP3 MLOAD DUP4 DUP2 ADD DUP2 DUP2 LT PUSH8 0xFFFFFFFFFFFFFFFF DUP3 GT OR PUSH2 0x530 JUMPI SWAP1 PUSH1 0x20 SWAP2 DUP6 MSTORE PUSH1 0x1 DUP5 SLOAD SWAP5 DUP6 DUP4 MSTORE ADD SLOAD SWAP2 DUP3 SWAP2 ADD MSTORE DUP1 DUP4 GT PUSH1 0x0 EQ PUSH2 0x523 JUMPI DUP3 SUB SWAP2 DUP3 GT PUSH2 0x510 JUMPI POP PUSH1 0x20 SWAP3 POP SWAP1 JUMPDEST MLOAD SWAP1 DUP2 MSTORE RETURN JUMPDEST PUSH4 0x4E487B71 PUSH1 0xE0 SHL DUP2 MSTORE PUSH1 0x11 DUP5 MSTORE PUSH1 0x24 SWAP1 REVERT JUMPDEST POP SWAP1 POP PUSH1 0x20 SWAP3 POP SWAP1 PUSH2 0x50A JUMP JUMPDEST PUSH4 0x4E487B71 PUSH1 0xE0 SHL DUP4 MSTORE PUSH1 0x41 DUP7 MSTORE PUSH1 0x24 DUP4 REVERT JUMPDEST DUP4 CALLVALUE PUSH2 0x115 JUMPI PUSH1 0x20 CALLDATASIZE PUSH1 0x3 NOT ADD SLT PUSH2 0x115 JUMPI PUSH2 0x55D PUSH2 0xC75 JUMP JUMPDEST PUSH2 0x565 PUSH2 0xD58 JUMP JUMPDEST DUP2 SLOAD PUSH1 0x1 PUSH1 0x1 PUSH1 0xA0 SHL SUB NOT AND PUSH1 0x1 PUSH1 0x1 PUSH1 0xA0 SHL SUB SWAP2 SWAP1 SWAP2 AND OR DUP2 SSTORE DUP1 RETURN JUMPDEST SWAP1 SWAP2 POP CALLVALUE PUSH2 0x31A JUMPI DUP3 PUSH1 0x3 NOT CALLDATASIZE ADD SLT PUSH2 0x31A JUMPI DUP2 MLOAD SWAP1 DUP3 DUP3 ADD SWAP1 DUP3 DUP3 LT PUSH8 0xFFFFFFFFFFFFFFFF DUP4 GT OR PUSH2 0x610 JUMPI POP DUP3 MSTORE PUSH1 0x5 DUP2 MSTORE PUSH1 0x20 SWAP1 PUSH5 0x352E302E3 PUSH1 0xDC SHL PUSH1 0x20 DUP3 ADD MSTORE DUP3 MLOAD SWAP4 DUP5 SWAP3 PUSH1 0x20 DUP5 MSTORE DUP3 MLOAD SWAP3 DUP4 PUSH1 0x20 DUP7 ADD MSTORE DUP3 JUMPDEST DUP5 DUP2 LT PUSH2 0x5FA JUMPI POP POP POP DUP3 DUP3 ADD DUP5 ADD MSTORE PUSH1 0x1F ADD PUSH1 0x1F NOT AND DUP2 ADD SUB ADD SWAP1 RETURN JUMPDEST DUP2 DUP2 ADD DUP4 ADD MLOAD DUP9 DUP3 ADD DUP9 ADD MSTORE DUP8 SWAP6 POP DUP3 ADD PUSH2 0x5DC JUMP JUMPDEST PUSH4 0x4E487B71 PUSH1 0xE0 SHL DUP6 MSTORE PUSH1 0x41 SWAP1 MSTORE PUSH1 0x24 DUP5 REVERT JUMPDEST DUP4 DUP3 CALLVALUE PUSH2 0x137 JUMPI PUSH1 0x20 CALLDATASIZE PUSH1 0x3 NOT ADD SLT PUSH2 0x137 JUMPI DUP3 CALLDATALOAD PUSH2 0x640 PUSH2 0xD91 JUMP JUMPDEST PUSH32 0x9B779B17422D0DF92223018B32B4D1FA46E071723D6817E2486D003BECC55F00 SWAP2 PUSH1 0x2 DUP4 SLOAD EQ PUSH2 0x76E JUMPI PUSH1 0x2 DUP4 SSTORE CALLER DUP5 MSTORE PUSH1 0x2 PUSH1 0x20 MSTORE DUP1 DUP5 KECCAK256 PUSH1 0x3 SLOAD DUP4 LT PUSH2 0x75E JUMPI PUSH1 0x1 DUP2 ADD SLOAD PUSH2 0x74E JUMPI PUSH1 0x1 SLOAD DUP3 MLOAD PUSH4 0x23B872DD PUSH1 0xE0 SHL PUSH1 0x20 DUP3 ADD MSTORE CALLER PUSH1 0x24 DUP3 ADD MSTORE ADDRESS PUSH1 0x44 DUP3 ADD MSTORE PUSH1 0x64 DUP1 DUP3 ADD DUP7 SWAP1 MSTORE DUP2 MSTORE SWAP1 PUSH1 0x1 PUSH1 0x1 PUSH1 0xA0 SHL SUB AND PUSH1 0xA0 DUP3 ADD PUSH8 0xFFFFFFFFFFFFFFFF DUP2 GT DUP4 DUP3 LT OR PUSH2 0x73B JUMPI DUP5 MSTORE PUSH2 0x6E1 SWAP2 SWAP1 PUSH2 0xDBC JUMP JUMPDEST DUP1 SLOAD SWAP1 DUP4 DUP3 ADD DUP1 SWAP3 GT PUSH2 0x728 JUMPI DUP2 SWAP1 SSTORE DUP2 MLOAD SWAP3 DUP4 MSTORE PUSH1 0x20 DUP4 ADD MSTORE PUSH1 0x1 SWAP3 SWAP2 CALLER SWAP2 PUSH32 0x1449C6DD7851ABC30ABF37F57715F492010519147CC2652FBC38202C18A6EE90 SWAP2 LOG2 SSTORE DUP1 RETURN JUMPDEST PUSH4 0x4E487B71 PUSH1 0xE0 SHL DUP7 MSTORE PUSH1 0x11 DUP8 MSTORE PUSH1 0x24 DUP7 REVERT JUMPDEST PUSH4 0x4E487B71 PUSH1 0xE0 SHL DUP9 MSTORE PUSH1 0x41 DUP10 MSTORE PUSH1 0x24 DUP9 REVERT JUMPDEST DUP2 MLOAD PUSH4 0x6C18A989 PUSH1 0xE1 SHL DUP2 MSTORE DUP7 SWAP1 REVERT JUMPDEST DUP2 MLOAD PUSH4 0x103BE3B PUSH1 0xE2 SHL DUP2 MSTORE DUP7 SWAP1 REVERT JUMPDEST MLOAD PUSH4 0x3EE5AEB5 PUSH1 0xE0 SHL DUP2 MSTORE DUP5 SWAP1 REVERT JUMPDEST DUP4 DUP3 CALLVALUE PUSH2 0x137 JUMPI DUP2 PUSH1 0x3 NOT CALLDATASIZE ADD SLT PUSH2 0x137 JUMPI SWAP1 SLOAD SWAP1 MLOAD PUSH1 0x1 PUSH1 0x1 PUSH1 0xA0 SHL SUB SWAP1 SWAP2 AND DUP2 MSTORE PUSH1 0x20 SWAP1 RETURN JUMPDEST DUP4 DUP3 CALLVALUE PUSH2 0x137 JUMPI PUSH1 0x20 CALLDATASIZE PUSH1 0x3 NOT ADD SLT PUSH2 0x137 JUMPI SWAP1 DUP2 SWAP1 PUSH1 0x1 PUSH1 0x1 PUSH1 0xA0 SHL SUB PUSH2 0x7CB PUSH2 0xC75 JUMP JUMPDEST AND DUP2 MSTORE PUSH1 0x2 PUSH1 0x20 MSTORE KECCAK256 PUSH1 0x1 DUP2 SLOAD SWAP2 ADD SLOAD DUP3 MLOAD SWAP2 DUP3 MSTORE PUSH1 0x20 DUP3 ADD MSTORE RETURN JUMPDEST DUP4 DUP3 CALLVALUE PUSH2 0x137 JUMPI DUP2 PUSH1 0x3 NOT CALLDATASIZE ADD SLT PUSH2 0x137 JUMPI PUSH1 0x0 DUP1 MLOAD PUSH1 0x20 PUSH2 0xF13 DUP4 CODECOPY DUP2 MLOAD SWAP2 MSTORE SLOAD SWAP1 MLOAD PUSH1 0x1 PUSH1 0x1 PUSH1 0xA0 SHL SUB SWAP1 SWAP2 AND DUP2 MSTORE PUSH1 0x20 SWAP1 RETURN JUMPDEST DUP4 DUP3 CALLVALUE PUSH2 0x137 JUMPI DUP2 PUSH1 0x3 NOT CALLDATASIZE ADD SLT PUSH2 0x137 JUMPI PUSH1 0x20 PUSH32 0x62E78CEA01BEE320CD4E420270B5EA74000D11B0C9F74754EBDBFC544B05A258 SWAP2 PUSH2 0x85B PUSH2 0xD58 JUMP JUMPDEST PUSH2 0x863 PUSH2 0xD91 JUMP JUMPDEST PUSH1 0x0 DUP1 MLOAD PUSH1 0x20 PUSH2 0xF33 DUP4 CODECOPY DUP2 MLOAD SWAP2 MSTORE DUP1 SLOAD PUSH1 0xFF NOT AND PUSH1 0x1 OR SWAP1 SSTORE MLOAD CALLER DUP2 MSTORE LOG1 DUP1 RETURN JUMPDEST DUP4 CALLVALUE PUSH2 0x115 JUMPI DUP1 PUSH1 0x3 NOT CALLDATASIZE ADD SLT PUSH2 0x115 JUMPI PUSH2 0x89E PUSH2 0xD58 JUMP JUMPDEST PUSH1 0x0 DUP1 MLOAD PUSH1 0x20 PUSH2 0xF13 DUP4 CODECOPY DUP2 MLOAD SWAP2 MSTORE DUP1 SLOAD PUSH1 0x1 PUSH1 0x1 PUSH1 0xA0 SHL SUB NOT DUP2 AND SWAP1 SWAP2 SSTORE DUP2 SWAP1 PUSH1 0x1 PUSH1 0x1 PUSH1 0xA0 SHL SUB AND PUSH32 0x8BE0079C531659141344CD1FD0A4F28419497F9722A3DAAFE3B4186F6B6457E0 DUP3 DUP1 LOG3 DUP1 RETURN JUMPDEST DUP4 DUP3 CALLVALUE PUSH2 0x137 JUMPI DUP2 PUSH1 0x3 NOT CALLDATASIZE ADD SLT PUSH2 0x137 JUMPI PUSH1 0x20 SWAP1 PUSH1 0xFF PUSH1 0x0 DUP1 MLOAD PUSH1 0x20 PUSH2 0xF33 DUP4 CODECOPY DUP2 MLOAD SWAP2 MSTORE SLOAD AND SWAP1 MLOAD SWAP1 ISZERO ISZERO DUP2 MSTORE RETURN JUMPDEST SWAP1 DUP4 CALLVALUE PUSH2 0x115 JUMPI DUP1 PUSH1 0x3 NOT CALLDATASIZE ADD SLT PUSH2 0x115 JUMPI POP PUSH32 0x0 PUSH1 0x1 PUSH1 0x1 PUSH1 0xA0 SHL SUB AND ADDRESS SUB PUSH2 0x98C JUMPI PUSH1 0x20 SWAP1 MLOAD PUSH32 0x360894A13BA1A3210667C828492DB98DCA3E2076CC3735A920A3CA505D382BBC DUP2 MSTORE RETURN JUMPDEST MLOAD PUSH4 0x703E46DD PUSH1 0xE1 SHL DUP2 MSTORE REVERT JUMPDEST SWAP2 POP DUP1 PUSH1 0x3 NOT CALLDATASIZE ADD SLT PUSH2 0x31A JUMPI PUSH2 0x9AE PUSH2 0xC75 JUMP JUMPDEST SWAP1 PUSH1 0x24 SWAP4 DUP5 CALLDATALOAD PUSH8 0xFFFFFFFFFFFFFFFF DUP2 GT PUSH2 0x137 JUMPI CALLDATASIZE PUSH1 0x23 DUP3 ADD SLT ISZERO PUSH2 0x137 JUMPI DUP1 DUP6 ADD CALLDATALOAD SWAP4 PUSH2 0x9DC DUP6 PUSH2 0xCC8 JUMP JUMPDEST PUSH2 0x9E8 DUP6 MLOAD SWAP2 DUP3 PUSH2 0xC90 JUMP JUMPDEST DUP6 DUP2 MSTORE PUSH1 0x20 SWAP6 DUP7 DUP3 ADD SWAP4 CALLDATASIZE DUP11 DUP4 DUP4 ADD ADD GT PUSH2 0x316 JUMPI DUP2 DUP7 SWAP3 DUP12 DUP11 SWAP4 ADD DUP8 CALLDATACOPY DUP4 ADD ADD MSTORE PUSH1 0x1 PUSH1 0x1 PUSH1 0xA0 SHL SUB PUSH32 0x0 DUP2 AND ADDRESS DUP2 EQ SWAP1 DUP2 ISZERO PUSH2 0xBA5 JUMPI JUMPDEST POP PUSH2 0xB95 JUMPI PUSH2 0xA4D PUSH2 0xD58 JUMP JUMPDEST DUP6 MLOAD PUSH4 0x52D1902D PUSH1 0xE0 SHL DUP2 MSTORE SWAP1 DUP4 AND SWAP7 DUP1 DUP3 DUP11 DUP2 DUP12 GAS STATICCALL SWAP2 DUP3 SWAP2 DUP8 SWAP4 PUSH2 0xB65 JUMPI JUMPDEST POP POP PUSH2 0xA8A JUMPI POP POP POP POP POP MLOAD SWAP2 PUSH4 0x4C9C8CE3 PUSH1 0xE0 SHL DUP4 MSTORE DUP3 ADD MSTORE REVERT JUMPDEST DUP7 DUP10 SWAP7 DUP10 SWAP3 PUSH32 0x360894A13BA1A3210667C828492DB98DCA3E2076CC3735A920A3CA505D382BBC SWAP1 DUP2 DUP2 SUB PUSH2 0xB50 JUMPI POP DUP6 EXTCODESIZE ISZERO PUSH2 0xB3B JUMPI DUP1 SLOAD PUSH1 0x1 PUSH1 0x1 PUSH1 0xA0 SHL SUB NOT AND DUP4 OR SWAP1 SSTORE MLOAD DUP7 SWAP4 SWAP3 SWAP2 PUSH32 0xBC7CD75A20EE27FD9ADEBAB32041F755214DBC6BFFA90CC0225B39DA2E5C2D3B DUP6 DUP1 LOG2 DUP3 MLOAD ISZERO PUSH2 0xB1F JUMPI POP POP PUSH2 0xB1B SWAP4 DUP3 SWAP2 MLOAD SWAP1 DUP5 GAS DELEGATECALL PUSH2 0xB15 PUSH2 0xE7F JUMP JUMPDEST SWAP2 PUSH2 0xEAF JUMP JUMPDEST POP DUP1 RETURN JUMPDEST SWAP4 POP SWAP4 POP POP POP CALLVALUE PUSH2 0xB2F JUMPI POP POP DUP1 RETURN JUMPDEST PUSH4 0xB398979F PUSH1 0xE0 SHL DUP2 MSTORE REVERT JUMPDEST POP MLOAD PUSH4 0x4C9C8CE3 PUSH1 0xE0 SHL DUP2 MSTORE SWAP2 DUP3 ADD MSTORE DUP6 SWAP2 POP REVERT JUMPDEST DUP5 DUP11 SWAP2 DUP5 MLOAD SWAP2 PUSH4 0x2A875269 PUSH1 0xE2 SHL DUP4 MSTORE DUP3 ADD MSTORE REVERT JUMPDEST SWAP1 DUP1 SWAP3 SWAP4 POP DUP2 RETURNDATASIZE DUP4 GT PUSH2 0xB8E JUMPI JUMPDEST PUSH2 0xB7D DUP2 DUP4 PUSH2 0xC90 JUMP JUMPDEST DUP2 ADD SUB SLT PUSH2 0x316 JUMPI MLOAD SWAP1 CODESIZE DUP1 PUSH2 0xA6E JUMP JUMPDEST POP RETURNDATASIZE PUSH2 0xB73 JUMP JUMPDEST DUP6 MLOAD PUSH4 0x703E46DD PUSH1 0xE1 SHL DUP2 MSTORE DUP9 SWAP1 REVERT JUMPDEST SWAP1 POP DUP2 PUSH32 0x360894A13BA1A3210667C828492DB98DCA3E2076CC3735A920A3CA505D382BBC SLOAD AND EQ ISZERO CODESIZE PUSH2 0xA40 JUMP JUMPDEST DUP4 DUP3 CALLVALUE PUSH2 0x137 JUMPI DUP2 PUSH1 0x3 NOT CALLDATASIZE ADD SLT PUSH2 0x137 JUMPI PUSH1 0x1 SLOAD SWAP1 MLOAD PUSH1 0x1 PUSH1 0x1 PUSH1 0xA0 SHL SUB SWAP1 SWAP2 AND DUP2 MSTORE PUSH1 0x20 SWAP1 RETURN JUMPDEST SWAP1 SWAP2 POP CALLVALUE PUSH2 0x31A JUMPI DUP3 PUSH1 0x3 NOT CALLDATASIZE ADD SLT PUSH2 0x31A JUMPI PUSH2 0xC17 PUSH2 0xD58 JUMP JUMPDEST PUSH1 0x0 DUP1 MLOAD PUSH1 0x20 PUSH2 0xF33 DUP4 CODECOPY DUP2 MLOAD SWAP2 MSTORE SWAP1 DUP2 SLOAD SWAP1 PUSH1 0xFF DUP3 AND ISZERO PUSH2 0xC67 JUMPI POP PUSH1 0xFF NOT AND SWAP1 SSTORE MLOAD CALLER DUP2 MSTORE PUSH32 0x5DB9EE0A495BF2E6FF9C91A7834C1BA4FDD244A5E8AA4E537BD38AEAE4B073AA SWAP1 PUSH1 0x20 SWAP1 LOG1 DUP1 RETURN JUMPDEST DUP4 MLOAD PUSH4 0x8DFC202B PUSH1 0xE0 SHL DUP2 MSTORE REVERT JUMPDEST PUSH1 0x4 CALLDATALOAD SWAP1 PUSH1 0x1 PUSH1 0x1 PUSH1 0xA0 SHL SUB DUP3 AND DUP3 SUB PUSH2 0xC8B JUMPI JUMP JUMPDEST PUSH1 0x0 DUP1 REVERT JUMPDEST SWAP1 PUSH1 0x1F DUP1 NOT SWAP2 ADD AND DUP2 ADD SWAP1 DUP2 LT PUSH8 0xFFFFFFFFFFFFFFFF DUP3 GT OR PUSH2 0xCB2 JUMPI PUSH1 0x40 MSTORE JUMP JUMPDEST PUSH4 0x4E487B71 PUSH1 0xE0 SHL PUSH1 0x0 MSTORE PUSH1 0x41 PUSH1 0x4 MSTORE PUSH1 0x24 PUSH1 0x0 REVERT JUMPDEST PUSH8 0xFFFFFFFFFFFFFFFF DUP2 GT PUSH2 0xCB2 JUMPI PUSH1 0x1F ADD PUSH1 0x1F NOT AND PUSH1 0x20 ADD SWAP1 JUMP JUMPDEST PUSH1 0x1 PUSH1 0x1 PUSH1 0xA0 SHL SUB SWAP1 DUP2 AND SWAP1 DUP2 ISZERO PUSH2 0xD3F JUMPI PUSH1 0x0 DUP1 MLOAD PUSH1 0x20 PUSH2 0xF13 DUP4 CODECOPY DUP2 MLOAD SWAP2 MSTORE DUP1 SLOAD PUSH1 0x1 PUSH1 0x1 PUSH1 0xA0 SHL SUB NOT DUP2 AND DUP5 OR SWAP1 SWAP2 SSTORE AND PUSH32 0x8BE0079C531659141344CD1FD0A4F28419497F9722A3DAAFE3B4186F6B6457E0 PUSH1 0x0 DUP1 LOG3 JUMP JUMPDEST PUSH1 0x40 MLOAD PUSH4 0x1E4FBDF7 PUSH1 0xE0 SHL DUP2 MSTORE PUSH1 0x0 PUSH1 0x4 DUP3 ADD MSTORE PUSH1 0x24 SWAP1 REVERT JUMPDEST PUSH1 0x0 DUP1 MLOAD PUSH1 0x20 PUSH2 0xF13 DUP4 CODECOPY DUP2 MLOAD SWAP2 MSTORE SLOAD PUSH1 0x1 PUSH1 0x1 PUSH1 0xA0 SHL SUB AND CALLER SUB PUSH2 0xD79 JUMPI JUMP JUMPDEST PUSH1 0x40 MLOAD PUSH4 0x118CDAA7 PUSH1 0xE0 SHL DUP2 MSTORE CALLER PUSH1 0x4 DUP3 ADD MSTORE PUSH1 0x24 SWAP1 REVERT JUMPDEST PUSH1 0xFF PUSH1 0x0 DUP1 MLOAD PUSH1 0x20 PUSH2 0xF33 DUP4 CODECOPY DUP2 MLOAD SWAP2 MSTORE SLOAD AND PUSH2 0xDAA JUMPI JUMP JUMPDEST PUSH1 0x40 MLOAD PUSH4 0xD93C0665 PUSH1 0xE0 SHL DUP2 MSTORE PUSH1 0x4 SWAP1 REVERT JUMPDEST PUSH1 0x1 DUP1 PUSH1 0xA0 SHL SUB AND SWAP1 PUSH2 0xDE6 PUSH1 0x0 DUP1 DUP4 PUSH1 0x20 DUP3 SWAP6 MLOAD SWAP2 ADD DUP3 DUP8 GAS CALL PUSH2 0xDDF PUSH2 0xE7F JUMP JUMPDEST SWAP1 DUP5 PUSH2 0xEAF JUMP JUMPDEST SWAP1 DUP2 MLOAD SWAP2 DUP3 ISZERO ISZERO SWAP3 DUP4 PUSH2 0xE16 JUMPI JUMPDEST POP POP POP PUSH2 0xDFE JUMPI POP JUMP JUMPDEST PUSH1 0x24 SWAP1 PUSH1 0x40 MLOAD SWAP1 PUSH4 0x5274AFE7 PUSH1 0xE0 SHL DUP3 MSTORE PUSH1 0x4 DUP3 ADD MSTORE REVERT JUMPDEST DUP2 SWAP3 SWAP4 POP SWAP1 PUSH1 0x20 SWAP2 DUP2 ADD SUB SLT PUSH2 0x137 JUMPI PUSH1 0x20 ADD MLOAD SWAP1 DUP2 ISZERO SWAP2 DUP3 ISZERO SUB PUSH2 0x115 JUMPI POP CODESIZE DUP1 DUP1 PUSH2 0xDF4 JUMP JUMPDEST PUSH1 0xFF PUSH32 0xF0C57E16840DF040F15088DC2F81FE391C3923BEC73E23A9662EFC9C229C6A00 SLOAD PUSH1 0x40 SHR AND ISZERO PUSH2 0xE6D JUMPI JUMP JUMPDEST PUSH1 0x40 MLOAD PUSH4 0x1AFCD79F PUSH1 0xE3 SHL DUP2 MSTORE PUSH1 0x4 SWAP1 REVERT JUMPDEST RETURNDATASIZE ISZERO PUSH2 0xEAA JUMPI RETURNDATASIZE SWAP1 PUSH2 0xE90 DUP3 PUSH2 0xCC8 JUMP JUMPDEST SWAP2 PUSH2 0xE9E PUSH1 0x40 MLOAD SWAP4 DUP5 PUSH2 0xC90 JUMP JUMPDEST DUP3 MSTORE RETURNDATASIZE PUSH1 0x0 PUSH1 0x20 DUP5 ADD RETURNDATACOPY JUMP JUMPDEST PUSH1 0x60 SWAP1 JUMP JUMPDEST SWAP1 PUSH2 0xED6 JUMPI POP DUP1 MLOAD ISZERO PUSH2 0xEC4 JUMPI DUP1 MLOAD SWAP1 PUSH1 0x20 ADD REVERT JUMPDEST PUSH1 0x40 MLOAD PUSH4 0xA12F521 PUSH1 0xE1 SHL DUP2 MSTORE PUSH1 0x4 SWAP1 REVERT JUMPDEST DUP2 MLOAD ISZERO DUP1 PUSH2 0xF09 JUMPI JUMPDEST PUSH2 0xEE7 JUMPI POP SWAP1 JUMP JUMPDEST PUSH1 0x40 MLOAD PUSH4 0x9996B315 PUSH1 0xE0 SHL DUP2 MSTORE PUSH1 0x1 PUSH1 0x1 PUSH1 0xA0 SHL SUB SWAP1 SWAP2 AND PUSH1 0x4 DUP3 ADD MSTORE PUSH1 0x24 SWAP1 REVERT JUMPDEST POP DUP1 EXTCODESIZE ISZERO PUSH2 0xEDF JUMP INVALID SWAP1 AND 0xD0 SWAP14 PUSH19 0xD40FDAE2FD8CEAC6B6234C7706214FD39C1CD1 0xE6 MULMOD LOG0 MSTORE DUP13 NOT SWAP4 STOP 0xCD MCOPY 0xD1 TLOAD PUSH15 0x187E77E9AEE88184C21F4F2182AB58 0x27 0xCB EXTCODESIZE PUSH31 0x7FBEDCD63F03300A2646970667358221220BC43B2414986A103BAFEF7C20F ADDMOD 0xCD DUP5 0xB6 LOG2 0xC8 GT 0xFC SWAP11 0xD7 0xB1 0xBF 0xB4 LOG2 CODESIZE CODESIZE 0xEE GAS 0xDD PUSH5 0x736F6C6343 STOP ADDMOD XOR STOP CALLER "},"gasEstimates":{"creation":{"codeDepositCost":"795200","executionCost":"infinite","totalCost":"infinite"},"external":{"UPGRADE_INTERFACE_VERSION()":"infinite","initialize(address,address,address,uint256)":"infinite","minStakeAmount()":"2627","owner()":"infinite","pause()":"infinite","paused()":"infinite","proxiableUUID()":"infinite","rdat()":"2317","renounceOwnership()":"infinite","signerWalletAddress()":"2493","stake(uint256)":"infinite","stakers(address)":"4725","transferOwnership(address)":"infinite","unpause()":"infinite","unstake(address,uint256,bytes)":"infinite","updateSignerWalletAddress(address)":"infinite","upgradeToAndCall(address,bytes)":"infinite","votingPower(address)":"4983"},"internal":{"_authorizeUpgrade(address)":"infinite"}},"methodIdentifiers":{"UPGRADE_INTERFACE_VERSION()":"ad3cb1cc","initialize(address,address,address,uint256)":"cf756fdf","minStakeAmount()":"f1887684","owner()":"8da5cb5b","pause()":"8456cb59","paused()":"5c975abb","proxiableUUID()":"52d1902d","rdat()":"49be02a7","renounceOwnership()":"715018a6","signerWalletAddress()":"9f2b30cf","stake(uint256)":"a694fc3a","stakers(address)":"9168ae72","transferOwnership(address)":"f2fde38b","unpause()":"3f4ba83a","unstake(address,uint256,bytes)":"c4113b88","updateSignerWalletAddress(address)":"af2bc438","upgradeToAndCall(address,bytes)":"4f1ef286","votingPower(address)":"c07473f6"}},"storageLayout":{"storage":[{"astId":4893,"contract":"contracts/referralStaking/RDataReferralStaking.sol:RDataReferralStaking","label":"signerWalletAddress","offset":0,"slot":"0","type":"t_address"},{"astId":4897,"contract":"contracts/referralStaking/RDataReferralStaking.sol:RDataReferralStaking","label":"rdat","offset":0,"slot":"1","type":"t_contract(IERC20)1382"},{"astId":4903,"contract":"contracts/referralStaking/RDataReferralStaking.sol:RDataReferralStaking","label":"stakers","offset":0,"slot":"2","type":"t_mapping(t_address,t_struct(Staker)4838_storage)"},{"astId":4906,"contract":"contracts/referralStaking/RDataReferralStaking.sol:RDataReferralStaking","label":"minStakeAmount","offset":0,"slot":"3","type":"t_uint256"}],"types":{"t_address":{"encoding":"inplace","label":"address","numberOfBytes":"20"},"t_contract(IERC20)1382":{"encoding":"inplace","label":"contract IERC20","numberOfBytes":"20"},"t_mapping(t_address,t_struct(Staker)4838_storage)":{"encoding":"mapping","key":"t_address","label":"mapping(address => struct IRDataReferralStaking.Staker)","numberOfBytes":"32","value":"t_struct(Staker)4838_storage"},"t_struct(Staker)4838_storage":{"encoding":"inplace","label":"struct IRDataReferralStaking.Staker","members":[{"astId":4835,"contract":"contracts/referralStaking/RDataReferralStaking.sol:RDataReferralStaking","label":"amount","offset":0,"slot":"0","type":"t_uint256"},{"astId":4837,"contract":"contracts/referralStaking/RDataReferralStaking.sol:RDataReferralStaking","label":"unstakedAmount","offset":0,"slot":"1","type":"t_uint256"}],"numberOfBytes":"64"},"t_uint256":{"encoding":"inplace","label":"uint256","numberOfBytes":"32"}}},"userdoc":{"events":{"Staked(address,uint256,uint256)":{"notice":"Triggered when a user has staked some RDAT"},"Unstaked(address,uint256)":{"notice":"Triggered when a user has unstaked some RDAT"}},"kind":"user","methods":{"initialize(address,address,address,uint256)":{"notice":"Used to initialize a new RdataStaking contract"},"stake(uint256)":{"notice":"Allows users to stake"},"unstake(address,uint256,bytes)":{"notice":"Allows users to claim their staking"},"updateSignerWalletAddress(address)":{"notice":"Updates the address of the backend wallet"},"votingPower(address)":{"notice":"Returns the voting power of a user"}},"version":1}}}}