{
  "_format": "hh-sol-artifact-1",
  "contractName": "RDataReferralStaking",
  "sourceName": "contracts/referralStaking/RDataReferralStaking.sol",
  "abi": [
    {
      "inputs": [
        {
          "internalType": "address",
          "name": "target",
          "type": "address"
        }
      ],
      "name": "AddressEmptyCode",
      "type": "error"
    },
    {
      "inputs": [
        {
          "internalType": "address",
          "name": "account",
          "type": "address"
        }
      ],
      "name": "AddressInsufficientBalance",
      "type": "error"
    },
    {
      "inputs": [],
      "name": "AlreadyStaked",
      "type": "error"
    },
    {
      "inputs": [],
      "name": "AlreadyUnstaked",
      "type": "error"
    },
    {
      "inputs": [
        {
          "internalType": "address",
          "name": "implementation",
          "type": "address"
        }
      ],
      "name": "ERC1967InvalidImplementation",
      "type": "error"
    },
    {
      "inputs": [],
      "name": "ERC1967NonPayable",
      "type": "error"
    },
    {
      "inputs": [],
      "name": "EnforcedPause",
      "type": "error"
    },
    {
      "inputs": [],
      "name": "ExpectedPause",
      "type": "error"
    },
    {
      "inputs": [],
      "name": "FailedInnerCall",
      "type": "error"
    },
    {
      "inputs": [],
      "name": "InvalidInitialization",
      "type": "error"
    },
    {
      "inputs": [],
      "name": "InvalidSignature",
      "type": "error"
    },
    {
      "inputs": [],
      "name": "InvalidStakeAmount",
      "type": "error"
    },
    {
      "inputs": [],
      "name": "InvalidUnstakeAmount",
      "type": "error"
    },
    {
      "inputs": [],
      "name": "NotInitializing",
      "type": "error"
    },
    {
      "inputs": [],
      "name": "NothingToUnstake",
      "type": "error"
    },
    {
      "inputs": [
        {
          "internalType": "address",
          "name": "owner",
          "type": "address"
        }
      ],
      "name": "OwnableInvalidOwner",
      "type": "error"
    },
    {
      "inputs": [
        {
          "internalType": "address",
          "name": "account",
          "type": "address"
        }
      ],
      "name": "OwnableUnauthorizedAccount",
      "type": "error"
    },
    {
      "inputs": [],
      "name": "ReentrancyGuardReentrantCall",
      "type": "error"
    },
    {
      "inputs": [
        {
          "internalType": "address",
          "name": "token",
          "type": "address"
        }
      ],
      "name": "SafeERC20FailedOperation",
      "type": "error"
    },
    {
      "inputs": [],
      "name": "UUPSUnauthorizedCallContext",
      "type": "error"
    },
    {
      "inputs": [
        {
          "internalType": "bytes32",
          "name": "slot",
          "type": "bytes32"
        }
      ],
      "name": "UUPSUnsupportedProxiableUUID",
      "type": "error"
    },
    {
      "anonymous": false,
      "inputs": [
        {
          "indexed": false,
          "internalType": "uint64",
          "name": "version",
          "type": "uint64"
        }
      ],
      "name": "Initialized",
      "type": "event"
    },
    {
      "anonymous": false,
      "inputs": [
        {
          "indexed": true,
          "internalType": "address",
          "name": "previousOwner",
          "type": "address"
        },
        {
          "indexed": true,
          "internalType": "address",
          "name": "newOwner",
          "type": "address"
        }
      ],
      "name": "OwnershipTransferred",
      "type": "event"
    },
    {
      "anonymous": false,
      "inputs": [
        {
          "indexed": false,
          "internalType": "address",
          "name": "account",
          "type": "address"
        }
      ],
      "name": "Paused",
      "type": "event"
    },
    {
      "anonymous": false,
      "inputs": [
        {
          "indexed": true,
          "internalType": "address",
          "name": "stakerAddress",
          "type": "address"
        },
        {
          "indexed": false,
          "internalType": "uint256",
          "name": "amount",
          "type": "uint256"
        },
        {
          "indexed": false,
          "internalType": "uint256",
          "name": "totalAmount",
          "type": "uint256"
        }
      ],
      "name": "Staked",
      "type": "event"
    },
    {
      "anonymous": false,
      "inputs": [
        {
          "indexed": false,
          "internalType": "address",
          "name": "account",
          "type": "address"
        }
      ],
      "name": "Unpaused",
      "type": "event"
    },
    {
      "anonymous": false,
      "inputs": [
        {
          "indexed": true,
          "internalType": "address",
          "name": "stakerAddress",
          "type": "address"
        },
        {
          "indexed": false,
          "internalType": "uint256",
          "name": "amount",
          "type": "uint256"
        }
      ],
      "name": "Unstaked",
      "type": "event"
    },
    {
      "anonymous": false,
      "inputs": [
        {
          "indexed": true,
          "internalType": "address",
          "name": "implementation",
          "type": "address"
        }
      ],
      "name": "Upgraded",
      "type": "event"
    },
    {
      "inputs": [],
      "name": "UPGRADE_INTERFACE_VERSION",
      "outputs": [
        {
          "internalType": "string",
          "name": "",
          "type": "string"
        }
      ],
      "stateMutability": "view",
      "type": "function"
    },
    {
      "inputs": [
        {
          "internalType": "address",
          "name": "_rdatAddress",
          "type": "address"
        },
        {
          "internalType": "address",
          "name": "_signerWalletAddress",
          "type": "address"
        },
        {
          "internalType": "address",
          "name": "_ownerAddress",
          "type": "address"
        },
        {
          "internalType": "uint256",
          "name": "_minStakeAmount",
          "type": "uint256"
        }
      ],
      "name": "initialize",
      "outputs": [],
      "stateMutability": "nonpayable",
      "type": "function"
    },
    {
      "inputs": [],
      "name": "minStakeAmount",
      "outputs": [
        {
          "internalType": "uint256",
          "name": "",
          "type": "uint256"
        }
      ],
      "stateMutability": "view",
      "type": "function"
    },
    {
      "inputs": [],
      "name": "owner",
      "outputs": [
        {
          "internalType": "address",
          "name": "",
          "type": "address"
        }
      ],
      "stateMutability": "view",
      "type": "function"
    },
    {
      "inputs": [],
      "name": "pause",
      "outputs": [],
      "stateMutability": "nonpayable",
      "type": "function"
    },
    {
      "inputs": [],
      "name": "paused",
      "outputs": [
        {
          "internalType": "bool",
          "name": "",
          "type": "bool"
        }
      ],
      "stateMutability": "view",
      "type": "function"
    },
    {
      "inputs": [],
      "name": "proxiableUUID",
      "outputs": [
        {
          "internalType": "bytes32",
          "name": "",
          "type": "bytes32"
        }
      ],
      "stateMutability": "view",
      "type": "function"
    },
    {
      "inputs": [],
      "name": "rdat",
      "outputs": [
        {
          "internalType": "contract IERC20",
          "name": "",
          "type": "address"
        }
      ],
      "stateMutability": "view",
      "type": "function"
    },
    {
      "inputs": [],
      "name": "renounceOwnership",
      "outputs": [],
      "stateMutability": "nonpayable",
      "type": "function"
    },
    {
      "inputs": [],
      "name": "signerWalletAddress",
      "outputs": [
        {
          "internalType": "address",
          "name": "",
          "type": "address"
        }
      ],
      "stateMutability": "view",
      "type": "function"
    },
    {
      "inputs": [
        {
          "internalType": "uint256",
          "name": "_amount",
          "type": "uint256"
        }
      ],
      "name": "stake",
      "outputs": [],
      "stateMutability": "nonpayable",
      "type": "function"
    },
    {
      "inputs": [
        {
          "internalType": "address",
          "name": "",
          "type": "address"
        }
      ],
      "name": "stakers",
      "outputs": [
        {
          "internalType": "uint256",
          "name": "amount",
          "type": "uint256"
        },
        {
          "internalType": "uint256",
          "name": "unstakedAmount",
          "type": "uint256"
        }
      ],
      "stateMutability": "view",
      "type": "function"
    },
    {
      "inputs": [
        {
          "internalType": "address",
          "name": "newOwner",
          "type": "address"
        }
      ],
      "name": "transferOwnership",
      "outputs": [],
      "stateMutability": "nonpayable",
      "type": "function"
    },
    {
      "inputs": [],
      "name": "unpause",
      "outputs": [],
      "stateMutability": "nonpayable",
      "type": "function"
    },
    {
      "inputs": [
        {
          "internalType": "address",
          "name": "_stakerAddress",
          "type": "address"
        },
        {
          "internalType": "uint256",
          "name": "_amount",
          "type": "uint256"
        },
        {
          "internalType": "bytes",
          "name": "_signatures",
          "type": "bytes"
        }
      ],
      "name": "unstake",
      "outputs": [],
      "stateMutability": "nonpayable",
      "type": "function"
    },
    {
      "inputs": [
        {
          "internalType": "address",
          "name": "_newSignerWalletAddress",
          "type": "address"
        }
      ],
      "name": "updateSignerWalletAddress",
      "outputs": [],
      "stateMutability": "nonpayable",
      "type": "function"
    },
    {
      "inputs": [
        {
          "internalType": "address",
          "name": "newImplementation",
          "type": "address"
        },
        {
          "internalType": "bytes",
          "name": "data",
          "type": "bytes"
        }
      ],
      "name": "upgradeToAndCall",
      "outputs": [],
      "stateMutability": "payable",
      "type": "function"
    },
    {
      "inputs": [
        {
          "internalType": "address",
          "name": "userAddress",
          "type": "address"
        }
      ],
      "name": "votingPower",
      "outputs": [
        {
          "internalType": "uint256",
          "name": "",
          "type": "uint256"
        }
      ],
      "stateMutability": "view",
      "type": "function"
    }
  ],
  "bytecode": "0x60a0806040523461002a5730608052610f88908161003082396080518181816109350152610a140152f35b600080fdfe60406080815260048036101561001457600080fd5b600091823560e01c9182633f4ba83a14610bfc57826349be02a714610bd35782634f1ef2861461099957826352d1902d146109205782635c975abb146108ef578263715018a6146108855782638456cb591461081d5782638da5cb5b146107e75782639168ae72146107a55782639f2b30cf1461077d578263a694fc3a14610623578263ad3cb1cc14610583578263af2bc43814610543578263c07473f614610494578263c4113b881461031e578263cf756fdf1461013b57508163f188768414610118575063f2fde38b146100e957600080fd5b3461011557602036600319011261011557610112610105610c75565b61010d610d58565b610ce4565b80f35b80fd5b9050346101375781600319360112610137576020906003549051908152f35b5080fd5b9091503461031a57608036600319011261031a57610157610c75565b6001600160a01b0391906024358381169081900361031657604435918483168303610312577ff0c57e16840df040f15088dc2f81fe391c3923bec73e23a9662efc9c229c6a009485549360ff85891c16159467ffffffffffffffff81169687158061030b575b60018099149081610301575b1590816102f8575b506102ea575067ffffffffffffffff198116871788556102039190866102cb575b506101fb610e3e565b61010d610e3e565b61020b610e3e565b610213610e3e565b61021b610e3e565b847f9b779b17422d0df92223018b32b4d1fa46e071723d6817e2486d003becc55f0055610246610e3e565b600080516020610f3383398151915260ff1981541690556bffffffffffffffffffffffff60a01b91168185541617845586541617855560643560035561028a578380f35b7fc7f505b2f371ae2175ee4913f4499e1f2633a7b5936321eed1cdaeb6115181d29260209268ff000000000000000019815416905551908152a13880808380f35b68ffffffffffffffffff191668010000000000000001178855386101f2565b895163f92ee8a960e01b8152fd5b905015386101d1565b303b1591506101c9565b50866101bd565b8680fd5b8580fd5b8280fd5b91503461031a57606036600319011261031a57610339610c75565b602435919067ffffffffffffffff906044358281116103125736602382011215610312578086013583811161049057369101602401116103165761037b610d91565b60018060a01b039182821695868852600260205284882093600185019485546104805787905403610471578551936bffffffffffffffffffffffff199060601b1660208501528660348501526034845260608401948486108487111761045e5787905560015463a9059cbb60e01b60808601526084850189905260a4850188905260448652169260e0019182118483101761044b57507f0f5bb82176feb1b5e747e28471aa92156a04d9f3ab9f45f28e2d704232b93f75949284926104439260209652610dbc565b51908152a280f35b634e487b7160e01b885260419052602487fd5b634e487b7160e01b8a526041835260248afd5b5084516314fea1a960e11b8152fd5b8651636c18a98960e11b81528390fd5b8780fd5b908334610115576020366003190112610115576001600160a01b036104b7610c75565b168152600260205281812090825183810181811067ffffffffffffffff82111761053057906020918552600184549485835201549182910152808311600014610523578203918211610510575060209250905b51908152f35b634e487b7160e01b815260118452602490fd5b509050602092509061050a565b634e487b7160e01b835260418652602483fd5b83346101155760203660031901126101155761055d610c75565b610565610d58565b81546001600160a01b0319166001600160a01b039190911617815580f35b9091503461031a578260031936011261031a578151908282019082821067ffffffffffffffff8311176106105750825260058152602090640352e302e360dc1b6020820152825193849260208452825192836020860152825b8481106105fa57505050828201840152601f01601f19168101030190f35b81810183015188820188015287955082016105dc565b634e487b7160e01b855260419052602484fd5b838234610137576020366003190112610137578235610640610d91565b7f9b779b17422d0df92223018b32b4d1fa46e071723d6817e2486d003becc55f0091600283541461076e57600283553384526002602052808420600354831061075e57600181015461074e5760015482516323b872dd60e01b602082015233602482015230604482015260648082018690528152906001600160a01b031660a0820167ffffffffffffffff81118382101761073b5784526106e19190610dbc565b80549083820180921161072857819055815192835260208301526001929133917f1449c6dd7851abc30abf37f57715f492010519147cc2652fbc38202c18a6ee9091a25580f35b634e487b7160e01b865260118752602486fd5b634e487b7160e01b885260418952602488fd5b8151636c18a98960e11b81528690fd5b8151630103be3b60e21b81528690fd5b51633ee5aeb560e01b81528490fd5b838234610137578160031936011261013757905490516001600160a01b039091168152602090f35b838234610137576020366003190112610137579081906001600160a01b036107cb610c75565b1681526002602052206001815491015482519182526020820152f35b838234610137578160031936011261013757600080516020610f138339815191525490516001600160a01b039091168152602090f35b83823461013757816003193601126101375760207f62e78cea01bee320cd4e420270b5ea74000d11b0c9f74754ebdbfc544b05a2589161085b610d58565b610863610d91565b600080516020610f33833981519152805460ff1916600117905551338152a180f35b833461011557806003193601126101155761089e610d58565b600080516020610f1383398151915280546001600160a01b0319811690915581906001600160a01b03167f8be0079c531659141344cd1fd0a4f28419497f9722a3daafe3b4186f6b6457e08280a380f35b83823461013757816003193601126101375760209060ff600080516020610f33833981519152541690519015158152f35b908334610115578060031936011261011557507f00000000000000000000000000000000000000000000000000000000000000006001600160a01b0316300361098c57602090517f360894a13ba1a3210667c828492db98dca3e2076cc3735a920a3ca505d382bbc8152f35b5163703e46dd60e11b8152fd5b91508060031936011261031a576109ae610c75565b90602493843567ffffffffffffffff811161013757366023820112156101375780850135936109dc85610cc8565b6109e885519182610c90565b85815260209586820193368a8383010111610316578186928b8a93018737830101526001600160a01b037f00000000000000000000000000000000000000000000000000000000000000008116308114908115610ba5575b50610b9557610a4d610d58565b85516352d1902d60e01b81529083169680828a818b5afa9182918793610b65575b5050610a8a5750505050505191634c9c8ce360e01b8352820152fd5b86899689927f360894a13ba1a3210667c828492db98dca3e2076cc3735a920a3ca505d382bbc90818103610b505750853b15610b3b5780546001600160a01b0319168317905551869392917fbc7cd75a20ee27fd9adebab32041f755214dbc6bffa90cc0225b39da2e5c2d3b8580a2825115610b1f575050610b1b9382915190845af4610b15610e7f565b91610eaf565b5080f35b93509350505034610b2f57505080f35b63b398979f60e01b8152fd5b5051634c9c8ce360e01b815291820152859150fd5b848a91845191632a87526960e21b8352820152fd5b9080929350813d8311610b8e575b610b7d8183610c90565b810103126103165751903880610a6e565b503d610b73565b855163703e46dd60e11b81528890fd5b9050817f360894a13ba1a3210667c828492db98dca3e2076cc3735a920a3ca505d382bbc5416141538610a40565b83823461013757816003193601126101375760015490516001600160a01b039091168152602090f35b9091503461031a578260031936011261031a57610c17610d58565b600080516020610f338339815191529081549060ff821615610c67575060ff19169055513381527f5db9ee0a495bf2e6ff9c91a7834c1ba4fdd244a5e8aa4e537bd38aeae4b073aa90602090a180f35b8351638dfc202b60e01b8152fd5b600435906001600160a01b0382168203610c8b57565b600080fd5b90601f8019910116810190811067ffffffffffffffff821117610cb257604052565b634e487b7160e01b600052604160045260246000fd5b67ffffffffffffffff8111610cb257601f01601f191660200190565b6001600160a01b03908116908115610d3f57600080516020610f1383398151915280546001600160a01b031981168417909155167f8be0079c531659141344cd1fd0a4f28419497f9722a3daafe3b4186f6b6457e0600080a3565b604051631e4fbdf760e01b815260006004820152602490fd5b600080516020610f13833981519152546001600160a01b03163303610d7957565b60405163118cdaa760e01b8152336004820152602490fd5b60ff600080516020610f338339815191525416610daa57565b60405163d93c066560e01b8152600490fd5b60018060a01b031690610de6600080836020829551910182875af1610ddf610e7f565b9084610eaf565b908151918215159283610e16575b505050610dfe5750565b60249060405190635274afe760e01b82526004820152fd5b8192935090602091810103126101375760200151908115918215036101155750388080610df4565b60ff7ff0c57e16840df040f15088dc2f81fe391c3923bec73e23a9662efc9c229c6a005460401c1615610e6d57565b604051631afcd79f60e31b8152600490fd5b3d15610eaa573d90610e9082610cc8565b91610e9e6040519384610c90565b82523d6000602084013e565b606090565b90610ed65750805115610ec457805190602001fd5b604051630a12f52160e11b8152600490fd5b81511580610f09575b610ee7575090565b604051639996b31560e01b81526001600160a01b039091166004820152602490fd5b50803b15610edf56fe9016d09d72d40fdae2fd8ceac6b6234c7706214fd39c1cd1e609a0528c199300cd5ed15c6e187e77e9aee88184c21f4f2182ab5827cb3b7e07fbedcd63f03300a2646970667358221220bc43b2414986a103bafef7c20f08cd84b6a2c811fc9ad7b1bfb4a23838ee5add64736f6c63430008180033",
  "linkReferences": {},
  "deployedLinkReferences": {}
}