{
  "_format": "hh-sol-artifact-1",
  "contractName": "RDataReward",
  "sourceName": "contracts/reward/RDataReward.sol",
  "abi": [
    {
      "inputs": [
        {
          "internalType": "address",
          "name": "target",
          "type": "address"
        }
      ],
      "name": "AddressEmptyCode",
      "type": "error"
    },
    {
      "inputs": [
        {
          "internalType": "address",
          "name": "account",
          "type": "address"
        }
      ],
      "name": "AddressInsufficientBalance",
      "type": "error"
    },
    {
      "inputs": [],
      "name": "AlreadyClaimed",
      "type": "error"
    },
    {
      "inputs": [],
      "name": "ECDSAInvalidSignature",
      "type": "error"
    },
    {
      "inputs": [
        {
          "internalType": "uint256",
          "name": "length",
          "type": "uint256"
        }
      ],
      "name": "ECDSAInvalidSignatureLength",
      "type": "error"
    },
    {
      "inputs": [
        {
          "internalType": "bytes32",
          "name": "s",
          "type": "bytes32"
        }
      ],
      "name": "ECDSAInvalidSignatureS",
      "type": "error"
    },
    {
      "inputs": [
        {
          "internalType": "address",
          "name": "implementation",
          "type": "address"
        }
      ],
      "name": "ERC1967InvalidImplementation",
      "type": "error"
    },
    {
      "inputs": [],
      "name": "ERC1967NonPayable",
      "type": "error"
    },
    {
      "inputs": [],
      "name": "EnforcedPause",
      "type": "error"
    },
    {
      "inputs": [],
      "name": "ExpectedPause",
      "type": "error"
    },
    {
      "inputs": [],
      "name": "FailedInnerCall",
      "type": "error"
    },
    {
      "inputs": [],
      "name": "InvalidInitialization",
      "type": "error"
    },
    {
      "inputs": [],
      "name": "InvalidSignature",
      "type": "error"
    },
    {
      "inputs": [],
      "name": "NotInitializing",
      "type": "error"
    },
    {
      "inputs": [
        {
          "internalType": "address",
          "name": "owner",
          "type": "address"
        }
      ],
      "name": "OwnableInvalidOwner",
      "type": "error"
    },
    {
      "inputs": [
        {
          "internalType": "address",
          "name": "account",
          "type": "address"
        }
      ],
      "name": "OwnableUnauthorizedAccount",
      "type": "error"
    },
    {
      "inputs": [],
      "name": "ReentrancyGuardReentrantCall",
      "type": "error"
    },
    {
      "inputs": [
        {
          "internalType": "address",
          "name": "token",
          "type": "address"
        }
      ],
      "name": "SafeERC20FailedOperation",
      "type": "error"
    },
    {
      "inputs": [],
      "name": "SignatureExpired",
      "type": "error"
    },
    {
      "inputs": [],
      "name": "UUPSUnauthorizedCallContext",
      "type": "error"
    },
    {
      "inputs": [
        {
          "internalType": "bytes32",
          "name": "slot",
          "type": "bytes32"
        }
      ],
      "name": "UUPSUnsupportedProxiableUUID",
      "type": "error"
    },
    {
      "anonymous": false,
      "inputs": [
        {
          "indexed": true,
          "internalType": "uint256",
          "name": "userId",
          "type": "uint256"
        },
        {
          "indexed": true,
          "internalType": "address",
          "name": "receiveAddress",
          "type": "address"
        },
        {
          "indexed": false,
          "internalType": "uint256",
          "name": "claimAmount",
          "type": "uint256"
        },
        {
          "indexed": false,
          "internalType": "uint256",
          "name": "totalAmount",
          "type": "uint256"
        }
      ],
      "name": "Claimed",
      "type": "event"
    },
    {
      "anonymous": false,
      "inputs": [
        {
          "indexed": false,
          "internalType": "uint64",
          "name": "version",
          "type": "uint64"
        }
      ],
      "name": "Initialized",
      "type": "event"
    },
    {
      "anonymous": false,
      "inputs": [
        {
          "indexed": true,
          "internalType": "address",
          "name": "previousOwner",
          "type": "address"
        },
        {
          "indexed": true,
          "internalType": "address",
          "name": "newOwner",
          "type": "address"
        }
      ],
      "name": "OwnershipTransferred",
      "type": "event"
    },
    {
      "anonymous": false,
      "inputs": [
        {
          "indexed": false,
          "internalType": "address",
          "name": "account",
          "type": "address"
        }
      ],
      "name": "Paused",
      "type": "event"
    },
    {
      "anonymous": false,
      "inputs": [
        {
          "indexed": false,
          "internalType": "address",
          "name": "account",
          "type": "address"
        }
      ],
      "name": "Unpaused",
      "type": "event"
    },
    {
      "anonymous": false,
      "inputs": [
        {
          "indexed": true,
          "internalType": "address",
          "name": "implementation",
          "type": "address"
        }
      ],
      "name": "Upgraded",
      "type": "event"
    },
    {
      "inputs": [],
      "name": "UPGRADE_INTERFACE_VERSION",
      "outputs": [
        {
          "internalType": "string",
          "name": "",
          "type": "string"
        }
      ],
      "stateMutability": "view",
      "type": "function"
    },
    {
      "inputs": [
        {
          "internalType": "uint256",
          "name": "_userId",
          "type": "uint256"
        },
        {
          "internalType": "address",
          "name": "_receiveAddress",
          "type": "address"
        },
        {
          "internalType": "uint256",
          "name": "_amount",
          "type": "uint256"
        },
        {
          "internalType": "uint256",
          "name": "_deadline",
          "type": "uint256"
        },
        {
          "internalType": "bytes",
          "name": "_signatures",
          "type": "bytes"
        }
      ],
      "name": "claim",
      "outputs": [],
      "stateMutability": "nonpayable",
      "type": "function"
    },
    {
      "inputs": [
        {
          "internalType": "address",
          "name": "_rdatAddress",
          "type": "address"
        },
        {
          "internalType": "address",
          "name": "_signerWalletAddress",
          "type": "address"
        }
      ],
      "name": "initialize",
      "outputs": [],
      "stateMutability": "nonpayable",
      "type": "function"
    },
    {
      "inputs": [],
      "name": "owner",
      "outputs": [
        {
          "internalType": "address",
          "name": "",
          "type": "address"
        }
      ],
      "stateMutability": "view",
      "type": "function"
    },
    {
      "inputs": [],
      "name": "pause",
      "outputs": [],
      "stateMutability": "nonpayable",
      "type": "function"
    },
    {
      "inputs": [],
      "name": "paused",
      "outputs": [
        {
          "internalType": "bool",
          "name": "",
          "type": "bool"
        }
      ],
      "stateMutability": "view",
      "type": "function"
    },
    {
      "inputs": [],
      "name": "proxiableUUID",
      "outputs": [
        {
          "internalType": "bytes32",
          "name": "",
          "type": "bytes32"
        }
      ],
      "stateMutability": "view",
      "type": "function"
    },
    {
      "inputs": [],
      "name": "rdat",
      "outputs": [
        {
          "internalType": "contract IERC20",
          "name": "",
          "type": "address"
        }
      ],
      "stateMutability": "view",
      "type": "function"
    },
    {
      "inputs": [],
      "name": "renounceOwnership",
      "outputs": [],
      "stateMutability": "nonpayable",
      "type": "function"
    },
    {
      "inputs": [],
      "name": "signerWalletAddress",
      "outputs": [
        {
          "internalType": "address",
          "name": "",
          "type": "address"
        }
      ],
      "stateMutability": "view",
      "type": "function"
    },
    {
      "inputs": [
        {
          "internalType": "address",
          "name": "newOwner",
          "type": "address"
        }
      ],
      "name": "transferOwnership",
      "outputs": [],
      "stateMutability": "nonpayable",
      "type": "function"
    },
    {
      "inputs": [],
      "name": "unpause",
      "outputs": [],
      "stateMutability": "nonpayable",
      "type": "function"
    },
    {
      "inputs": [
        {
          "internalType": "address",
          "name": "_newSignerWalletAddress",
          "type": "address"
        }
      ],
      "name": "updateSignerWalletAddress",
      "outputs": [],
      "stateMutability": "nonpayable",
      "type": "function"
    },
    {
      "inputs": [
        {
          "internalType": "address",
          "name": "newImplementation",
          "type": "address"
        },
        {
          "internalType": "bytes",
          "name": "data",
          "type": "bytes"
        }
      ],
      "name": "upgradeToAndCall",
      "outputs": [],
      "stateMutability": "payable",
      "type": "function"
    },
    {
      "inputs": [
        {
          "internalType": "uint256",
          "name": "",
          "type": "uint256"
        }
      ],
      "name": "userClaimAmounts",
      "outputs": [
        {
          "internalType": "uint256",
          "name": "",
          "type": "uint256"
        }
      ],
      "stateMutability": "view",
      "type": "function"
    },
    {
      "inputs": [
        {
          "internalType": "address",
          "name": "_token",
          "type": "address"
        },
        {
          "internalType": "address",
          "name": "_to",
          "type": "address"
        },
        {
          "internalType": "uint256",
          "name": "_amount",
          "type": "uint256"
        }
      ],
      "name": "withdraw",
      "outputs": [
        {
          "internalType": "bool",
          "name": "success",
          "type": "bool"
        }
      ],
      "stateMutability": "nonpayable",
      "type": "function"
    }
  ],
  "bytecode": "0x60a0806040523461002a5730608052611036908161003082396080518181816103e6015261049a0152f35b600080fdfe60406080815260048036101561001457600080fd5b600091823560e01c9182632e4dbe8f146108b35782633f4ba83a1461083a578263485cc9551461068f57826349be02a7146106665782634f1ef2861461044a57826352d1902d146103d15782635c975abb146103a0578263681b8d8e14610377578263715018a61461030d5782638456cb59146102a55782638da5cb5b1461026f5782639f2b30cf14610247578263ad3cb1cc146101a357508163af2bc43814610163578163d9caed1214610102575063f2fde38b146100d357600080fd5b346100ff5760203660031901126100ff576100fc6100ef610ad9565b6100f7610d72565b610bdf565b80f35b80fd5b90503461015f57606036600319011261015f57602090610144610123610ad9565b61012b610abe565b610133610d72565b61013b610c7e565b60443591610baa565b906001600080516020610fe183398151915255519015158152f35b5080fd5b82346100ff5760203660031901126100ff5761017d610ad9565b610185610d72565b81546001600160a01b0319166001600160a01b039190911617815580f35b909150346102435782600319360112610243578151908282019082821067ffffffffffffffff8311176102305750825260058152602090640352e302e360dc1b6020820152825193849260208452825192836020860152825b84811061021a57505050828201840152601f01601f19168101030190f35b81810183015188820188015287955082016101fc565b634e487b7160e01b855260419052602484fd5b8280fd5b83823461015f578160031936011261015f57905490516001600160a01b039091168152602090f35b83823461015f578160031936011261015f57600080516020610fa18339815191525490516001600160a01b039091168152602090f35b83823461015f578160031936011261015f5760207f62e78cea01bee320cd4e420270b5ea74000d11b0c9f74754ebdbfc544b05a258916102e3610d72565b6102eb610c53565b600080516020610fc1833981519152805460ff1916600117905551338152a180f35b83346100ff57806003193601126100ff57610326610d72565b600080516020610fa183398151915280546001600160a01b0319811690915581906001600160a01b03167f8be0079c531659141344cd1fd0a4f28419497f9722a3daafe3b4186f6b6457e08280a380f35b909150346102435760203660031901126102435760209282913581526002845220549051908152f35b83823461015f578160031936011261015f5760209060ff600080516020610fc1833981519152541690519015158152f35b9083346100ff57806003193601126100ff57507f00000000000000000000000000000000000000000000000000000000000000006001600160a01b0316300361043d57602090517f360894a13ba1a3210667c828492db98dca3e2076cc3735a920a3ca505d382bbc8152f35b5163703e46dd60e11b8152fd5b9150806003193601126102435761045f610ad9565b9060243567ffffffffffffffff81116106625736602382011215610662576104909036906024818701359101610b43565b6001600160a01b037f00000000000000000000000000000000000000000000000000000000000000008116308114908115610634575b50610624576104d3610d72565b83169282516352d1902d60e01b81526020818781885afa8791816105ec575b5061050e578351634c9c8ce360e01b8152808701869052602490fd5b84879487927f360894a13ba1a3210667c828492db98dca3e2076cc3735a920a3ca505d382bbc908181036105d65750843b156105c05780546001600160a01b03191683179055518592917fbc7cd75a20ee27fd9adebab32041f755214dbc6bffa90cc0225b39da2e5c2d3b8480a28451156105a5575050808360206105a195519101845af461059b610b7a565b91610f3d565b5080f35b9250925050346105b457505080f35b63b398979f60e01b8152fd5b5051634c9c8ce360e01b81529182015260249150fd5b84602491845191632a87526960e21b8352820152fd5b9091506020813d60201161061c575b8161060860209383610aef565b81010312610618575190386104f2565b8780fd5b3d91506105fb565b825163703e46dd60e11b81528590fd5b9050817f360894a13ba1a3210667c828492db98dca3e2076cc3735a920a3ca505d382bbc54161415386104c6565b8480fd5b83823461015f578160031936011261015f5760015490516001600160a01b039091168152602090f35b909150346102435781600319360112610243576106aa610ad9565b906106b3610abe565b7ff0c57e16840df040f15088dc2f81fe391c3923bec73e23a9662efc9c229c6a009283549160ff83871c16159267ffffffffffffffff811694851580610833575b60018097149081610829575b159081610820575b50610812575067ffffffffffffffff19811685178655836107f3575b5061072d610e6c565b610735610e6c565b61073e33610bdf565b610746610e6c565b61074e610e6c565b610756610e6c565b83600080516020610fe18339815191525561076f610e6c565b600080516020610fc1833981519152805460ff1916905583546001600160a01b03199081166001600160a01b0393841617855587541691161785556107b2578380f35b7fc7f505b2f371ae2175ee4913f4499e1f2633a7b5936321eed1cdaeb6115181d29260209268ff000000000000000019815416905551908152a13880808380f35b68ffffffffffffffffff19166801000000000000000117855538610724565b875163f92ee8a960e01b8152fd5b90501538610708565b303b159150610700565b50846106f4565b90915034610243578260031936011261024357610855610d72565b600080516020610fc18339815191529081549060ff8216156108a5575060ff19169055513381527f5db9ee0a495bf2e6ff9c91a7834c1ba4fdd244a5e8aa4e537bd38aeae4b073aa90602090a180f35b8351638dfc202b60e01b8152fd5b83823461015f5760a036600319011261015f5782356108d0610abe565b604435929067ffffffffffffffff906064356084358381116106185736602382011215610618578089013590848211610aba573660248383010111610aba57610917610c53565b61091f610c7e565b855160208101888152606086901b6bffffffffffffffffffffffff191682890152605482018a9052607480830186905282526001600160a01b039690919060a0820190811182821017610aa757936109bc8894603c6109cb958f98956109c2968e525190209787815416987f19457468657265756d205369676e6564204d6573736167653a0a3332000000008252601c5220926024369201610b43565b90610dab565b90929192610de7565b1603610a9757848752600260205283872054861115610a8757421015610a7757838652600260205282862054850394808611610a6457907fd9cb1e2714d65a111c0f20f060176ad657496bd47a3de04ec7c3d4ca232112ac93929185885260026020528084892055610a4287838560015416610cae565b835196875260208701521693a36001600080516020610fe18339815191525580f35b634e487b7160e01b875260118852602487fd5b8251630819bdcd60e01b81528790fd5b8351630c8d9eab60e31b81528890fd5b8351638baa579f60e01b81528890fd5b634e487b7160e01b8c5260418d5260248cfd5b8880fd5b602435906001600160a01b0382168203610ad457565b600080fd5b600435906001600160a01b0382168203610ad457565b90601f8019910116810190811067ffffffffffffffff821117610b1157604052565b634e487b7160e01b600052604160045260246000fd5b67ffffffffffffffff8111610b1157601f01601f191660200190565b929192610b4f82610b27565b91610b5d6040519384610aef565b829481845281830111610ad4578281602093846000960137010152565b3d15610ba5573d90610b8b82610b27565b91610b996040519384610aef565b82523d6000602084013e565b606090565b6001600160a01b0316919082610bd1576000809350809281925af1610bcd610b7a565b5090565b610bda92610cae565b600190565b6001600160a01b03908116908115610c3a57600080516020610fa183398151915280546001600160a01b031981168417909155167f8be0079c531659141344cd1fd0a4f28419497f9722a3daafe3b4186f6b6457e0600080a3565b604051631e4fbdf760e01b815260006004820152602490fd5b60ff600080516020610fc18339815191525416610c6c57565b60405163d93c066560e01b8152600490fd5b600080516020610fe18339815191526002815414610c9c5760029055565b604051633ee5aeb560e01b8152600490fd5b60405163a9059cbb60e01b602082019081526001600160a01b0393841660248301526044808301959095529381529291608084019167ffffffffffffffff831185841017610b1157610d1a926040521692600080938192519082875af1610d13610b7a565b9084610f3d565b908151918215159283610d4a575b505050610d325750565b60249060405190635274afe760e01b82526004820152fd5b81929350906020918101031261015f5760200151908115918215036100ff5750388080610d28565b600080516020610fa1833981519152546001600160a01b03163303610d9357565b60405163118cdaa760e01b8152336004820152602490fd5b8151919060418303610ddc57610dd592506020820151906060604084015193015160001a90610ead565b9192909190565b505060009160029190565b6004811015610e565780610df9575050565b60018103610e135760405163f645eedf60e01b8152600490fd5b60028103610e345760405163fce698f760e01b815260048101839052602490fd5b600314610e3e5750565b602490604051906335e2f38360e21b82526004820152fd5b634e487b7160e01b600052602160045260246000fd5b60ff7ff0c57e16840df040f15088dc2f81fe391c3923bec73e23a9662efc9c229c6a005460401c1615610e9b57565b604051631afcd79f60e31b8152600490fd5b91907f7fffffffffffffffffffffffffffffff5d576e7357a4501ddfe92f46681b20a08411610f3157926020929160ff608095604051948552168484015260408301526060820152600092839182805260015afa15610f255780516001600160a01b03811615610f1c57918190565b50809160019190565b604051903d90823e3d90fd5b50505060009160039190565b90610f645750805115610f5257805190602001fd5b604051630a12f52160e11b8152600490fd5b81511580610f97575b610f75575090565b604051639996b31560e01b81526001600160a01b039091166004820152602490fd5b50803b15610f6d56fe9016d09d72d40fdae2fd8ceac6b6234c7706214fd39c1cd1e609a0528c199300cd5ed15c6e187e77e9aee88184c21f4f2182ab5827cb3b7e07fbedcd63f033009b779b17422d0df92223018b32b4d1fa46e071723d6817e2486d003becc55f00a2646970667358221220f784fca18a36d46fb4a856ac72aade37f5033f4433d4415f6978a85c07da0d1664736f6c63430008180033",
  "linkReferences": {},
  "deployedLinkReferences": {}
}