{
  "_format": "hh-sol-artifact-1",
  "contractName": "RDataReward",
  "sourceName": "contracts/reward/RDataReward.sol",
  "abi": [
    {
      "inputs": [
        {
          "internalType": "address",
          "name": "target",
          "type": "address"
        }
      ],
      "name": "AddressEmptyCode",
      "type": "error"
    },
    {
      "inputs": [
        {
          "internalType": "address",
          "name": "account",
          "type": "address"
        }
      ],
      "name": "AddressInsufficientBalance",
      "type": "error"
    },
    {
      "inputs": [],
      "name": "AlreadyClaimed",
      "type": "error"
    },
    {
      "inputs": [],
      "name": "ECDSAInvalidSignature",
      "type": "error"
    },
    {
      "inputs": [
        {
          "internalType": "uint256",
          "name": "length",
          "type": "uint256"
        }
      ],
      "name": "ECDSAInvalidSignatureLength",
      "type": "error"
    },
    {
      "inputs": [
        {
          "internalType": "bytes32",
          "name": "s",
          "type": "bytes32"
        }
      ],
      "name": "ECDSAInvalidSignatureS",
      "type": "error"
    },
    {
      "inputs": [
        {
          "internalType": "address",
          "name": "implementation",
          "type": "address"
        }
      ],
      "name": "ERC1967InvalidImplementation",
      "type": "error"
    },
    {
      "inputs": [],
      "name": "ERC1967NonPayable",
      "type": "error"
    },
    {
      "inputs": [],
      "name": "EnforcedPause",
      "type": "error"
    },
    {
      "inputs": [],
      "name": "ExpectedPause",
      "type": "error"
    },
    {
      "inputs": [],
      "name": "FailedInnerCall",
      "type": "error"
    },
    {
      "inputs": [],
      "name": "InvalidInitialization",
      "type": "error"
    },
    {
      "inputs": [],
      "name": "InvalidSignature",
      "type": "error"
    },
    {
      "inputs": [],
      "name": "NotInitializing",
      "type": "error"
    },
    {
      "inputs": [
        {
          "internalType": "address",
          "name": "owner",
          "type": "address"
        }
      ],
      "name": "OwnableInvalidOwner",
      "type": "error"
    },
    {
      "inputs": [
        {
          "internalType": "address",
          "name": "account",
          "type": "address"
        }
      ],
      "name": "OwnableUnauthorizedAccount",
      "type": "error"
    },
    {
      "inputs": [],
      "name": "ReentrancyGuardReentrantCall",
      "type": "error"
    },
    {
      "inputs": [
        {
          "internalType": "address",
          "name": "token",
          "type": "address"
        }
      ],
      "name": "SafeERC20FailedOperation",
      "type": "error"
    },
    {
      "inputs": [],
      "name": "SignatureExpired",
      "type": "error"
    },
    {
      "inputs": [],
      "name": "UUPSUnauthorizedCallContext",
      "type": "error"
    },
    {
      "inputs": [
        {
          "internalType": "bytes32",
          "name": "slot",
          "type": "bytes32"
        }
      ],
      "name": "UUPSUnsupportedProxiableUUID",
      "type": "error"
    },
    {
      "anonymous": false,
      "inputs": [
        {
          "indexed": true,
          "internalType": "uint256",
          "name": "userId",
          "type": "uint256"
        },
        {
          "indexed": true,
          "internalType": "address",
          "name": "receiveAddress",
          "type": "address"
        },
        {
          "indexed": false,
          "internalType": "uint256",
          "name": "claimAmount",
          "type": "uint256"
        },
        {
          "indexed": false,
          "internalType": "uint256",
          "name": "totalAmount",
          "type": "uint256"
        }
      ],
      "name": "Claimed",
      "type": "event"
    },
    {
      "anonymous": false,
      "inputs": [
        {
          "indexed": false,
          "internalType": "uint64",
          "name": "version",
          "type": "uint64"
        }
      ],
      "name": "Initialized",
      "type": "event"
    },
    {
      "anonymous": false,
      "inputs": [
        {
          "indexed": true,
          "internalType": "address",
          "name": "previousOwner",
          "type": "address"
        },
        {
          "indexed": true,
          "internalType": "address",
          "name": "newOwner",
          "type": "address"
        }
      ],
      "name": "OwnershipTransferred",
      "type": "event"
    },
    {
      "anonymous": false,
      "inputs": [
        {
          "indexed": false,
          "internalType": "address",
          "name": "account",
          "type": "address"
        }
      ],
      "name": "Paused",
      "type": "event"
    },
    {
      "anonymous": false,
      "inputs": [
        {
          "indexed": false,
          "internalType": "address",
          "name": "account",
          "type": "address"
        }
      ],
      "name": "Unpaused",
      "type": "event"
    },
    {
      "anonymous": false,
      "inputs": [
        {
          "indexed": true,
          "internalType": "address",
          "name": "implementation",
          "type": "address"
        }
      ],
      "name": "Upgraded",
      "type": "event"
    },
    {
      "inputs": [],
      "name": "UPGRADE_INTERFACE_VERSION",
      "outputs": [
        {
          "internalType": "string",
          "name": "",
          "type": "string"
        }
      ],
      "stateMutability": "view",
      "type": "function"
    },
    {
      "inputs": [
        {
          "internalType": "uint256",
          "name": "_userId",
          "type": "uint256"
        },
        {
          "internalType": "address",
          "name": "_receiveAddress",
          "type": "address"
        },
        {
          "internalType": "uint256",
          "name": "_amount",
          "type": "uint256"
        },
        {
          "internalType": "uint256",
          "name": "_deadline",
          "type": "uint256"
        },
        {
          "internalType": "bytes",
          "name": "_signatures",
          "type": "bytes"
        }
      ],
      "name": "claim",
      "outputs": [],
      "stateMutability": "nonpayable",
      "type": "function"
    },
    {
      "inputs": [
        {
          "internalType": "address",
          "name": "_rdatAddress",
          "type": "address"
        },
        {
          "internalType": "address",
          "name": "_signerWalletAddress",
          "type": "address"
        }
      ],
      "name": "initialize",
      "outputs": [],
      "stateMutability": "nonpayable",
      "type": "function"
    },
    {
      "inputs": [],
      "name": "owner",
      "outputs": [
        {
          "internalType": "address",
          "name": "",
          "type": "address"
        }
      ],
      "stateMutability": "view",
      "type": "function"
    },
    {
      "inputs": [],
      "name": "pause",
      "outputs": [],
      "stateMutability": "nonpayable",
      "type": "function"
    },
    {
      "inputs": [],
      "name": "paused",
      "outputs": [
        {
          "internalType": "bool",
          "name": "",
          "type": "bool"
        }
      ],
      "stateMutability": "view",
      "type": "function"
    },
    {
      "inputs": [],
      "name": "proxiableUUID",
      "outputs": [
        {
          "internalType": "bytes32",
          "name": "",
          "type": "bytes32"
        }
      ],
      "stateMutability": "view",
      "type": "function"
    },
    {
      "inputs": [],
      "name": "rdat",
      "outputs": [
        {
          "internalType": "contract IERC20",
          "name": "",
          "type": "address"
        }
      ],
      "stateMutability": "view",
      "type": "function"
    },
    {
      "inputs": [],
      "name": "renounceOwnership",
      "outputs": [],
      "stateMutability": "nonpayable",
      "type": "function"
    },
    {
      "inputs": [],
      "name": "signerWalletAddress",
      "outputs": [
        {
          "internalType": "address",
          "name": "",
          "type": "address"
        }
      ],
      "stateMutability": "view",
      "type": "function"
    },
    {
      "inputs": [
        {
          "internalType": "address",
          "name": "newOwner",
          "type": "address"
        }
      ],
      "name": "transferOwnership",
      "outputs": [],
      "stateMutability": "nonpayable",
      "type": "function"
    },
    {
      "inputs": [],
      "name": "unpause",
      "outputs": [],
      "stateMutability": "nonpayable",
      "type": "function"
    },
    {
      "inputs": [
        {
          "internalType": "address",
          "name": "_newSignerWalletAddress",
          "type": "address"
        }
      ],
      "name": "updateSignerWalletAddress",
      "outputs": [],
      "stateMutability": "nonpayable",
      "type": "function"
    },
    {
      "inputs": [
        {
          "internalType": "address",
          "name": "newImplementation",
          "type": "address"
        },
        {
          "internalType": "bytes",
          "name": "data",
          "type": "bytes"
        }
      ],
      "name": "upgradeToAndCall",
      "outputs": [],
      "stateMutability": "payable",
      "type": "function"
    },
    {
      "inputs": [
        {
          "internalType": "uint256",
          "name": "",
          "type": "uint256"
        }
      ],
      "name": "userClaimAmounts",
      "outputs": [
        {
          "internalType": "uint256",
          "name": "",
          "type": "uint256"
        }
      ],
      "stateMutability": "view",
      "type": "function"
    }
  ],
  "bytecode": "0x60a06040523060805234801561001457600080fd5b5060805161142061003e600039600081816108fb015281816109240152610a6501526114206000f3fe6080604052600436106100e85760003560e01c8063681b8d8e1161008a5780639f2b30cf116100595780639f2b30cf1461027b578063ad3cb1cc1461029b578063af2bc438146102d9578063f2fde38b146102f957600080fd5b8063681b8d8e146101e7578063715018a6146102145780638456cb59146102295780638da5cb5b1461023e57600080fd5b806349be02a7116100c657806349be02a7146101445780634f1ef2861461018157806352d1902d146101945780635c975abb146101b757600080fd5b80632e4dbe8f146100ed5780633f4ba83a1461010f578063485cc95514610124575b600080fd5b3480156100f957600080fd5b5061010d6101083660046110e7565b610319565b005b34801561011b57600080fd5b5061010d6104ce565b34801561013057600080fd5b5061010d61013f366004611186565b6104e0565b34801561015057600080fd5b50600154610164906001600160a01b031681565b6040516001600160a01b0390911681526020015b60405180910390f35b61010d61018f3660046111cf565b610639565b3480156101a057600080fd5b506101a9610658565b604051908152602001610178565b3480156101c357600080fd5b506000805160206113cb8339815191525460ff166040519015158152602001610178565b3480156101f357600080fd5b506101a9610202366004611291565b60026020526000908152604090205481565b34801561022057600080fd5b5061010d610675565b34801561023557600080fd5b5061010d610687565b34801561024a57600080fd5b507f9016d09d72d40fdae2fd8ceac6b6234c7706214fd39c1cd1e609a0528c199300546001600160a01b0316610164565b34801561028757600080fd5b50600054610164906001600160a01b031681565b3480156102a757600080fd5b506102cc604051806040016040528060058152602001640352e302e360dc1b81525081565b60405161017891906112ce565b3480156102e557600080fd5b5061010d6102f4366004611301565b610697565b34801561030557600080fd5b5061010d610314366004611301565b6106c1565b610321610704565b60408051602081018890526bffffffffffffffffffffffff19606088901b169181019190915260548101859052607481018490526000906094016040516020818303038152906040528051906020012090506103be83838080601f0160208091040260200160405190810160405280939291908181526020018383808284376000920191909152506103b892508591506107359050565b90610768565b6000546001600160a01b039081169116146103ec57604051638baa579f60e01b815260040160405180910390fd5b600087815260026020526040902054851161041a57604051630c8d9eab60e31b815260040160405180910390fd5b42841161043a57604051630819bdcd60e01b815260040160405180910390fd5b600087815260026020526040812054610453908761131c565b600089815260026020526040902087905560015490915061047e906001600160a01b03168883610794565b60408051828152602081018890526001600160a01b038916918a917fd9cb1e2714d65a111c0f20f060176ad657496bd47a3de04ec7c3d4ca232112ac910160405180910390a35050505050505050565b6104d66107eb565b6104de610846565b565b7ff0c57e16840df040f15088dc2f81fe391c3923bec73e23a9662efc9c229c6a008054600160401b810460ff16159067ffffffffffffffff166000811580156105265750825b905060008267ffffffffffffffff1660011480156105435750303b155b905081158015610551575080155b1561056f5760405163f92ee8a960e01b815260040160405180910390fd5b845467ffffffffffffffff19166001178555831561059957845460ff60401b1916600160401b1785555b6105a2336108a6565b6105aa6108b7565b6105b26108bf565b6105ba6108cf565b600180546001600160a01b03808a166001600160a01b0319928316179092556000805492891692909116919091179055831561063057845460ff60401b19168555604051600181527fc7f505b2f371ae2175ee4913f4499e1f2633a7b5936321eed1cdaeb6115181d29060200160405180910390a15b50505050505050565b6106416108f0565b61064a82610995565b610654828261099d565b5050565b6000610662610a5a565b506000805160206113ab83398151915290565b61067d6107eb565b6104de6000610aa3565b61068f6107eb565b6104de610b14565b61069f6107eb565b600080546001600160a01b0319166001600160a01b0392909216919091179055565b6106c96107eb565b6001600160a01b0381166106f857604051631e4fbdf760e01b8152600060048201526024015b60405180910390fd5b61070181610aa3565b50565b6000805160206113cb8339815191525460ff16156104de5760405163d93c066560e01b815260040160405180910390fd5b7f19457468657265756d205369676e6564204d6573736167653a0a3332000000006000908152601c91909152603c902090565b6000806000806107788686610b5d565b9250925092506107888282610baa565b50909150505b92915050565b604080516001600160a01b038416602482015260448082018490528251808303909101815260649091019091526020810180516001600160e01b031663a9059cbb60e01b1790526107e6908490610c63565b505050565b3361081d7f9016d09d72d40fdae2fd8ceac6b6234c7706214fd39c1cd1e609a0528c199300546001600160a01b031690565b6001600160a01b0316146104de5760405163118cdaa760e01b81523360048201526024016106ef565b61084e610cc6565b6000805160206113cb833981519152805460ff191681557f5db9ee0a495bf2e6ff9c91a7834c1ba4fdd244a5e8aa4e537bd38aeae4b073aa335b6040516001600160a01b03909116815260200160405180910390a150565b6108ae610cf6565b61070181610d3f565b6104de610cf6565b6108c7610cf6565b6104de610d47565b6108d7610cf6565b6000805160206113cb833981519152805460ff19169055565b306001600160a01b037f000000000000000000000000000000000000000000000000000000000000000016148061097757507f00000000000000000000000000000000000000000000000000000000000000006001600160a01b031661096b6000805160206113ab833981519152546001600160a01b031690565b6001600160a01b031614155b156104de5760405163703e46dd60e11b815260040160405180910390fd5b6107016107eb565b816001600160a01b03166352d1902d6040518163ffffffff1660e01b8152600401602060405180830381865afa9250505080156109f7575060408051601f3d908101601f191682019092526109f49181019061133d565b60015b610a1f57604051634c9c8ce360e01b81526001600160a01b03831660048201526024016106ef565b6000805160206113ab8339815191528114610a5057604051632a87526960e21b8152600481018290526024016106ef565b6107e68383610d75565b306001600160a01b037f000000000000000000000000000000000000000000000000000000000000000016146104de5760405163703e46dd60e11b815260040160405180910390fd5b7f9016d09d72d40fdae2fd8ceac6b6234c7706214fd39c1cd1e609a0528c19930080546001600160a01b031981166001600160a01b03848116918217845560405192169182907f8be0079c531659141344cd1fd0a4f28419497f9722a3daafe3b4186f6b6457e090600090a3505050565b610b1c610704565b6000805160206113cb833981519152805460ff191660011781557f62e78cea01bee320cd4e420270b5ea74000d11b0c9f74754ebdbfc544b05a25833610888565b60008060008351604103610b975760208401516040850151606086015160001a610b8988828585610dcb565b955095509550505050610ba3565b50508151600091506002905b9250925092565b6000826003811115610bbe57610bbe611356565b03610bc7575050565b6001826003811115610bdb57610bdb611356565b03610bf95760405163f645eedf60e01b815260040160405180910390fd5b6002826003811115610c0d57610c0d611356565b03610c2e5760405163fce698f760e01b8152600481018290526024016106ef565b6003826003811115610c4257610c42611356565b03610654576040516335e2f38360e21b8152600481018290526024016106ef565b6000610c786001600160a01b03841683610e9a565b90508051600014158015610c9d575080806020019051810190610c9b919061136c565b155b156107e657604051635274afe760e01b81526001600160a01b03841660048201526024016106ef565b6000805160206113cb8339815191525460ff166104de57604051638dfc202b60e01b815260040160405180910390fd5b7ff0c57e16840df040f15088dc2f81fe391c3923bec73e23a9662efc9c229c6a0054600160401b900460ff166104de57604051631afcd79f60e31b815260040160405180910390fd5b6106c9610cf6565b610d4f610cf6565b60017f9b779b17422d0df92223018b32b4d1fa46e071723d6817e2486d003becc55f0055565b610d7e82610eaf565b6040516001600160a01b038316907fbc7cd75a20ee27fd9adebab32041f755214dbc6bffa90cc0225b39da2e5c2d3b90600090a2805115610dc3576107e68282610f14565b610654610f8a565b600080807f7fffffffffffffffffffffffffffffff5d576e7357a4501ddfe92f46681b20a0841115610e065750600091506003905082610e90565b604080516000808252602082018084528a905260ff891692820192909252606081018790526080810186905260019060a0016020604051602081039080840390855afa158015610e5a573d6000803e3d6000fd5b5050604051601f1901519150506001600160a01b038116610e8657506000925060019150829050610e90565b9250600091508190505b9450945094915050565b6060610ea883836000610fa9565b9392505050565b806001600160a01b03163b600003610ee557604051634c9c8ce360e01b81526001600160a01b03821660048201526024016106ef565b6000805160206113ab83398151915280546001600160a01b0319166001600160a01b0392909216919091179055565b6060600080846001600160a01b031684604051610f31919061138e565b600060405180830381855af49150503d8060008114610f6c576040519150601f19603f3d011682016040523d82523d6000602084013e610f71565b606091505b5091509150610f81858383611046565b95945050505050565b34156104de5760405163b398979f60e01b815260040160405180910390fd5b606081471015610fce5760405163cd78605960e01b81523060048201526024016106ef565b600080856001600160a01b03168486604051610fea919061138e565b60006040518083038185875af1925050503d8060008114611027576040519150601f19603f3d011682016040523d82523d6000602084013e61102c565b606091505b509150915061103c868383611046565b9695505050505050565b60608261105b57611056826110a2565b610ea8565b815115801561107257506001600160a01b0384163b155b1561109b57604051639996b31560e01b81526001600160a01b03851660048201526024016106ef565b5080610ea8565b8051156110b25780518082602001fd5b604051630a12f52160e11b815260040160405180910390fd5b80356001600160a01b03811681146110e257600080fd5b919050565b60008060008060008060a0878903121561110057600080fd5b86359550611110602088016110cb565b94506040870135935060608701359250608087013567ffffffffffffffff8082111561113b57600080fd5b818901915089601f83011261114f57600080fd5b81358181111561115e57600080fd5b8a602082850101111561117057600080fd5b6020830194508093505050509295509295509295565b6000806040838503121561119957600080fd5b6111a2836110cb565b91506111b0602084016110cb565b90509250929050565b634e487b7160e01b600052604160045260246000fd5b600080604083850312156111e257600080fd5b6111eb836110cb565b9150602083013567ffffffffffffffff8082111561120857600080fd5b818501915085601f83011261121c57600080fd5b81358181111561122e5761122e6111b9565b604051601f8201601f19908116603f01168101908382118183101715611256576112566111b9565b8160405282815288602084870101111561126f57600080fd5b8260208601602083013760006020848301015280955050505050509250929050565b6000602082840312156112a357600080fd5b5035919050565b60005b838110156112c55781810151838201526020016112ad565b50506000910152565b60208152600082518060208401526112ed8160408501602087016112aa565b601f01601f19169190910160400192915050565b60006020828403121561131357600080fd5b610ea8826110cb565b8181038181111561078e57634e487b7160e01b600052601160045260246000fd5b60006020828403121561134f57600080fd5b5051919050565b634e487b7160e01b600052602160045260246000fd5b60006020828403121561137e57600080fd5b81518015158114610ea857600080fd5b600082516113a08184602087016112aa565b919091019291505056fe360894a13ba1a3210667c828492db98dca3e2076cc3735a920a3ca505d382bbccd5ed15c6e187e77e9aee88184c21f4f2182ab5827cb3b7e07fbedcd63f03300a2646970667358221220800318bdb24995f25ea3bfd8786b6c03e90919eafa988bec92c7a9bbe3295a3e64736f6c63430008180033",
  "linkReferences": {},
  "deployedLinkReferences": {}
}