{
  "_format": "hh-sol-artifact-1",
  "contractName": "Rdat",
  "sourceName": "contracts/rdata/Rdat.sol",
  "abi": [
    {
      "inputs": [
        {
          "internalType": "address",
          "name": "ownerAddress",
          "type": "address"
        }
      ],
      "stateMutability": "nonpayable",
      "type": "constructor"
    },
    {
      "inputs": [],
      "name": "CheckpointUnorderedInsertion",
      "type": "error"
    },
    {
      "inputs": [],
      "name": "ECDSAInvalidSignature",
      "type": "error"
    },
    {
      "inputs": [
        {
          "internalType": "uint256",
          "name": "length",
          "type": "uint256"
        }
      ],
      "name": "ECDSAInvalidSignatureLength",
      "type": "error"
    },
    {
      "inputs": [
        {
          "internalType": "bytes32",
          "name": "s",
          "type": "bytes32"
        }
      ],
      "name": "ECDSAInvalidSignatureS",
      "type": "error"
    },
    {
      "inputs": [
        {
          "internalType": "uint256",
          "name": "increasedSupply",
          "type": "uint256"
        },
        {
          "internalType": "uint256",
          "name": "cap",
          "type": "uint256"
        }
      ],
      "name": "ERC20ExceededSafeSupply",
      "type": "error"
    },
    {
      "inputs": [
        {
          "internalType": "address",
          "name": "spender",
          "type": "address"
        },
        {
          "internalType": "uint256",
          "name": "allowance",
          "type": "uint256"
        },
        {
          "internalType": "uint256",
          "name": "needed",
          "type": "uint256"
        }
      ],
      "name": "ERC20InsufficientAllowance",
      "type": "error"
    },
    {
      "inputs": [
        {
          "internalType": "address",
          "name": "sender",
          "type": "address"
        },
        {
          "internalType": "uint256",
          "name": "balance",
          "type": "uint256"
        },
        {
          "internalType": "uint256",
          "name": "needed",
          "type": "uint256"
        }
      ],
      "name": "ERC20InsufficientBalance",
      "type": "error"
    },
    {
      "inputs": [
        {
          "internalType": "address",
          "name": "approver",
          "type": "address"
        }
      ],
      "name": "ERC20InvalidApprover",
      "type": "error"
    },
    {
      "inputs": [
        {
          "internalType": "address",
          "name": "receiver",
          "type": "address"
        }
      ],
      "name": "ERC20InvalidReceiver",
      "type": "error"
    },
    {
      "inputs": [
        {
          "internalType": "address",
          "name": "sender",
          "type": "address"
        }
      ],
      "name": "ERC20InvalidSender",
      "type": "error"
    },
    {
      "inputs": [
        {
          "internalType": "address",
          "name": "spender",
          "type": "address"
        }
      ],
      "name": "ERC20InvalidSpender",
      "type": "error"
    },
    {
      "inputs": [
        {
          "internalType": "uint256",
          "name": "deadline",
          "type": "uint256"
        }
      ],
      "name": "ERC2612ExpiredSignature",
      "type": "error"
    },
    {
      "inputs": [
        {
          "internalType": "address",
          "name": "signer",
          "type": "address"
        },
        {
          "internalType": "address",
          "name": "owner",
          "type": "address"
        }
      ],
      "name": "ERC2612InvalidSigner",
      "type": "error"
    },
    {
      "inputs": [
        {
          "internalType": "uint256",
          "name": "timepoint",
          "type": "uint256"
        },
        {
          "internalType": "uint48",
          "name": "clock",
          "type": "uint48"
        }
      ],
      "name": "ERC5805FutureLookup",
      "type": "error"
    },
    {
      "inputs": [],
      "name": "ERC6372InconsistentClock",
      "type": "error"
    },
    {
      "inputs": [],
      "name": "EnforceMintBlocked",
      "type": "error"
    },
    {
      "inputs": [
        {
          "internalType": "address",
          "name": "account",
          "type": "address"
        },
        {
          "internalType": "uint256",
          "name": "currentNonce",
          "type": "uint256"
        }
      ],
      "name": "InvalidAccountNonce",
      "type": "error"
    },
    {
      "inputs": [],
      "name": "InvalidShortString",
      "type": "error"
    },
    {
      "inputs": [
        {
          "internalType": "address",
          "name": "owner",
          "type": "address"
        }
      ],
      "name": "OwnableInvalidOwner",
      "type": "error"
    },
    {
      "inputs": [
        {
          "internalType": "address",
          "name": "account",
          "type": "address"
        }
      ],
      "name": "OwnableUnauthorizedAccount",
      "type": "error"
    },
    {
      "inputs": [
        {
          "internalType": "uint8",
          "name": "bits",
          "type": "uint8"
        },
        {
          "internalType": "uint256",
          "name": "value",
          "type": "uint256"
        }
      ],
      "name": "SafeCastOverflowedUintDowncast",
      "type": "error"
    },
    {
      "inputs": [
        {
          "internalType": "string",
          "name": "str",
          "type": "string"
        }
      ],
      "name": "StringTooLong",
      "type": "error"
    },
    {
      "inputs": [
        {
          "internalType": "address",
          "name": "account",
          "type": "address"
        }
      ],
      "name": "UnauthorizedAdminAction",
      "type": "error"
    },
    {
      "inputs": [
        {
          "internalType": "address",
          "name": "account",
          "type": "address"
        }
      ],
      "name": "UnauthorizedUserAction",
      "type": "error"
    },
    {
      "inputs": [
        {
          "internalType": "uint256",
          "name": "expiry",
          "type": "uint256"
        }
      ],
      "name": "VotesExpiredSignature",
      "type": "error"
    },
    {
      "anonymous": false,
      "inputs": [
        {
          "indexed": true,
          "internalType": "address",
          "name": "blockedAddress",
          "type": "address"
        }
      ],
      "name": "AddressBlocked",
      "type": "event"
    },
    {
      "anonymous": false,
      "inputs": [
        {
          "indexed": true,
          "internalType": "address",
          "name": "unblockedAddress",
          "type": "address"
        }
      ],
      "name": "AddressUnblocked",
      "type": "event"
    },
    {
      "anonymous": false,
      "inputs": [
        {
          "indexed": true,
          "internalType": "address",
          "name": "oldAdmin",
          "type": "address"
        },
        {
          "indexed": true,
          "internalType": "address",
          "name": "newAdmin",
          "type": "address"
        }
      ],
      "name": "AdminChanged",
      "type": "event"
    },
    {
      "anonymous": false,
      "inputs": [
        {
          "indexed": true,
          "internalType": "address",
          "name": "owner",
          "type": "address"
        },
        {
          "indexed": true,
          "internalType": "address",
          "name": "spender",
          "type": "address"
        },
        {
          "indexed": false,
          "internalType": "uint256",
          "name": "value",
          "type": "uint256"
        }
      ],
      "name": "Approval",
      "type": "event"
    },
    {
      "anonymous": false,
      "inputs": [
        {
          "indexed": true,
          "internalType": "address",
          "name": "delegator",
          "type": "address"
        },
        {
          "indexed": true,
          "internalType": "address",
          "name": "fromDelegate",
          "type": "address"
        },
        {
          "indexed": true,
          "internalType": "address",
          "name": "toDelegate",
          "type": "address"
        }
      ],
      "name": "DelegateChanged",
      "type": "event"
    },
    {
      "anonymous": false,
      "inputs": [
        {
          "indexed": true,
          "internalType": "address",
          "name": "delegate",
          "type": "address"
        },
        {
          "indexed": false,
          "internalType": "uint256",
          "name": "previousVotes",
          "type": "uint256"
        },
        {
          "indexed": false,
          "internalType": "uint256",
          "name": "newVotes",
          "type": "uint256"
        }
      ],
      "name": "DelegateVotesChanged",
      "type": "event"
    },
    {
      "anonymous": false,
      "inputs": [],
      "name": "EIP712DomainChanged",
      "type": "event"
    },
    {
      "anonymous": false,
      "inputs": [],
      "name": "MintBlocked",
      "type": "event"
    },
    {
      "anonymous": false,
      "inputs": [
        {
          "indexed": true,
          "internalType": "address",
          "name": "previousOwner",
          "type": "address"
        },
        {
          "indexed": true,
          "internalType": "address",
          "name": "newOwner",
          "type": "address"
        }
      ],
      "name": "OwnershipTransferStarted",
      "type": "event"
    },
    {
      "anonymous": false,
      "inputs": [
        {
          "indexed": true,
          "internalType": "address",
          "name": "previousOwner",
          "type": "address"
        },
        {
          "indexed": true,
          "internalType": "address",
          "name": "newOwner",
          "type": "address"
        }
      ],
      "name": "OwnershipTransferred",
      "type": "event"
    },
    {
      "anonymous": false,
      "inputs": [
        {
          "indexed": true,
          "internalType": "address",
          "name": "from",
          "type": "address"
        },
        {
          "indexed": true,
          "internalType": "address",
          "name": "to",
          "type": "address"
        },
        {
          "indexed": false,
          "internalType": "uint256",
          "name": "value",
          "type": "uint256"
        }
      ],
      "name": "Transfer",
      "type": "event"
    },
    {
      "inputs": [],
      "name": "CLOCK_MODE",
      "outputs": [
        {
          "internalType": "string",
          "name": "",
          "type": "string"
        }
      ],
      "stateMutability": "pure",
      "type": "function"
    },
    {
      "inputs": [],
      "name": "DOMAIN_SEPARATOR",
      "outputs": [
        {
          "internalType": "bytes32",
          "name": "",
          "type": "bytes32"
        }
      ],
      "stateMutability": "view",
      "type": "function"
    },
    {
      "inputs": [],
      "name": "acceptOwnership",
      "outputs": [],
      "stateMutability": "nonpayable",
      "type": "function"
    },
    {
      "inputs": [],
      "name": "admin",
      "outputs": [
        {
          "internalType": "address",
          "name": "",
          "type": "address"
        }
      ],
      "stateMutability": "view",
      "type": "function"
    },
    {
      "inputs": [
        {
          "internalType": "address",
          "name": "owner",
          "type": "address"
        },
        {
          "internalType": "address",
          "name": "spender",
          "type": "address"
        }
      ],
      "name": "allowance",
      "outputs": [
        {
          "internalType": "uint256",
          "name": "",
          "type": "uint256"
        }
      ],
      "stateMutability": "view",
      "type": "function"
    },
    {
      "inputs": [
        {
          "internalType": "address",
          "name": "spender",
          "type": "address"
        },
        {
          "internalType": "uint256",
          "name": "value",
          "type": "uint256"
        }
      ],
      "name": "approve",
      "outputs": [
        {
          "internalType": "bool",
          "name": "",
          "type": "bool"
        }
      ],
      "stateMutability": "nonpayable",
      "type": "function"
    },
    {
      "inputs": [
        {
          "internalType": "address",
          "name": "account",
          "type": "address"
        }
      ],
      "name": "balanceOf",
      "outputs": [
        {
          "internalType": "uint256",
          "name": "",
          "type": "uint256"
        }
      ],
      "stateMutability": "view",
      "type": "function"
    },
    {
      "inputs": [
        {
          "internalType": "address",
          "name": "addressToBeBlocked",
          "type": "address"
        }
      ],
      "name": "blockAddress",
      "outputs": [],
      "stateMutability": "nonpayable",
      "type": "function"
    },
    {
      "inputs": [
        {
          "internalType": "uint256",
          "name": "_index",
          "type": "uint256"
        }
      ],
      "name": "blockListAt",
      "outputs": [
        {
          "internalType": "address",
          "name": "",
          "type": "address"
        }
      ],
      "stateMutability": "view",
      "type": "function"
    },
    {
      "inputs": [],
      "name": "blockListLength",
      "outputs": [
        {
          "internalType": "uint256",
          "name": "",
          "type": "uint256"
        }
      ],
      "stateMutability": "view",
      "type": "function"
    },
    {
      "inputs": [],
      "name": "blockMint",
      "outputs": [],
      "stateMutability": "nonpayable",
      "type": "function"
    },
    {
      "inputs": [
        {
          "internalType": "address",
          "name": "newAdmin",
          "type": "address"
        }
      ],
      "name": "changeAdmin",
      "outputs": [],
      "stateMutability": "nonpayable",
      "type": "function"
    },
    {
      "inputs": [
        {
          "internalType": "address",
          "name": "account",
          "type": "address"
        },
        {
          "internalType": "uint32",
          "name": "pos",
          "type": "uint32"
        }
      ],
      "name": "checkpoints",
      "outputs": [
        {
          "components": [
            {
              "internalType": "uint48",
              "name": "_key",
              "type": "uint48"
            },
            {
              "internalType": "uint208",
              "name": "_value",
              "type": "uint208"
            }
          ],
          "internalType": "struct Checkpoints.Checkpoint208",
          "name": "",
          "type": "tuple"
        }
      ],
      "stateMutability": "view",
      "type": "function"
    },
    {
      "inputs": [],
      "name": "clock",
      "outputs": [
        {
          "internalType": "uint48",
          "name": "",
          "type": "uint48"
        }
      ],
      "stateMutability": "view",
      "type": "function"
    },
    {
      "inputs": [],
      "name": "decimals",
      "outputs": [
        {
          "internalType": "uint8",
          "name": "",
          "type": "uint8"
        }
      ],
      "stateMutability": "view",
      "type": "function"
    },
    {
      "inputs": [
        {
          "internalType": "address",
          "name": "delegatee",
          "type": "address"
        }
      ],
      "name": "delegate",
      "outputs": [],
      "stateMutability": "nonpayable",
      "type": "function"
    },
    {
      "inputs": [
        {
          "internalType": "address",
          "name": "delegatee",
          "type": "address"
        },
        {
          "internalType": "uint256",
          "name": "nonce",
          "type": "uint256"
        },
        {
          "internalType": "uint256",
          "name": "expiry",
          "type": "uint256"
        },
        {
          "internalType": "uint8",
          "name": "v",
          "type": "uint8"
        },
        {
          "internalType": "bytes32",
          "name": "r",
          "type": "bytes32"
        },
        {
          "internalType": "bytes32",
          "name": "s",
          "type": "bytes32"
        }
      ],
      "name": "delegateBySig",
      "outputs": [],
      "stateMutability": "nonpayable",
      "type": "function"
    },
    {
      "inputs": [
        {
          "internalType": "address",
          "name": "account",
          "type": "address"
        }
      ],
      "name": "delegates",
      "outputs": [
        {
          "internalType": "address",
          "name": "",
          "type": "address"
        }
      ],
      "stateMutability": "view",
      "type": "function"
    },
    {
      "inputs": [],
      "name": "eip712Domain",
      "outputs": [
        {
          "internalType": "bytes1",
          "name": "fields",
          "type": "bytes1"
        },
        {
          "internalType": "string",
          "name": "name",
          "type": "string"
        },
        {
          "internalType": "string",
          "name": "version",
          "type": "string"
        },
        {
          "internalType": "uint256",
          "name": "chainId",
          "type": "uint256"
        },
        {
          "internalType": "address",
          "name": "verifyingContract",
          "type": "address"
        },
        {
          "internalType": "bytes32",
          "name": "salt",
          "type": "bytes32"
        },
        {
          "internalType": "uint256[]",
          "name": "extensions",
          "type": "uint256[]"
        }
      ],
      "stateMutability": "view",
      "type": "function"
    },
    {
      "inputs": [
        {
          "internalType": "uint256",
          "name": "timepoint",
          "type": "uint256"
        }
      ],
      "name": "getPastTotalSupply",
      "outputs": [
        {
          "internalType": "uint256",
          "name": "",
          "type": "uint256"
        }
      ],
      "stateMutability": "view",
      "type": "function"
    },
    {
      "inputs": [
        {
          "internalType": "address",
          "name": "account",
          "type": "address"
        },
        {
          "internalType": "uint256",
          "name": "timepoint",
          "type": "uint256"
        }
      ],
      "name": "getPastVotes",
      "outputs": [
        {
          "internalType": "uint256",
          "name": "",
          "type": "uint256"
        }
      ],
      "stateMutability": "view",
      "type": "function"
    },
    {
      "inputs": [
        {
          "internalType": "address",
          "name": "account",
          "type": "address"
        }
      ],
      "name": "getVotes",
      "outputs": [
        {
          "internalType": "uint256",
          "name": "",
          "type": "uint256"
        }
      ],
      "stateMutability": "view",
      "type": "function"
    },
    {
      "inputs": [
        {
          "internalType": "address",
          "name": "to",
          "type": "address"
        },
        {
          "internalType": "uint256",
          "name": "amount",
          "type": "uint256"
        }
      ],
      "name": "mint",
      "outputs": [],
      "stateMutability": "nonpayable",
      "type": "function"
    },
    {
      "inputs": [],
      "name": "mintBlocked",
      "outputs": [
        {
          "internalType": "bool",
          "name": "",
          "type": "bool"
        }
      ],
      "stateMutability": "view",
      "type": "function"
    },
    {
      "inputs": [],
      "name": "name",
      "outputs": [
        {
          "internalType": "string",
          "name": "",
          "type": "string"
        }
      ],
      "stateMutability": "view",
      "type": "function"
    },
    {
      "inputs": [
        {
          "internalType": "address",
          "name": "owner",
          "type": "address"
        }
      ],
      "name": "nonces",
      "outputs": [
        {
          "internalType": "uint256",
          "name": "",
          "type": "uint256"
        }
      ],
      "stateMutability": "view",
      "type": "function"
    },
    {
      "inputs": [
        {
          "internalType": "address",
          "name": "account",
          "type": "address"
        }
      ],
      "name": "numCheckpoints",
      "outputs": [
        {
          "internalType": "uint32",
          "name": "",
          "type": "uint32"
        }
      ],
      "stateMutability": "view",
      "type": "function"
    },
    {
      "inputs": [],
      "name": "owner",
      "outputs": [
        {
          "internalType": "address",
          "name": "",
          "type": "address"
        }
      ],
      "stateMutability": "view",
      "type": "function"
    },
    {
      "inputs": [],
      "name": "pendingOwner",
      "outputs": [
        {
          "internalType": "address",
          "name": "",
          "type": "address"
        }
      ],
      "stateMutability": "view",
      "type": "function"
    },
    {
      "inputs": [
        {
          "internalType": "address",
          "name": "owner",
          "type": "address"
        },
        {
          "internalType": "address",
          "name": "spender",
          "type": "address"
        },
        {
          "internalType": "uint256",
          "name": "value",
          "type": "uint256"
        },
        {
          "internalType": "uint256",
          "name": "deadline",
          "type": "uint256"
        },
        {
          "internalType": "uint8",
          "name": "v",
          "type": "uint8"
        },
        {
          "internalType": "bytes32",
          "name": "r",
          "type": "bytes32"
        },
        {
          "internalType": "bytes32",
          "name": "s",
          "type": "bytes32"
        }
      ],
      "name": "permit",
      "outputs": [],
      "stateMutability": "nonpayable",
      "type": "function"
    },
    {
      "inputs": [],
      "name": "renounceOwnership",
      "outputs": [],
      "stateMutability": "nonpayable",
      "type": "function"
    },
    {
      "inputs": [],
      "name": "symbol",
      "outputs": [
        {
          "internalType": "string",
          "name": "",
          "type": "string"
        }
      ],
      "stateMutability": "view",
      "type": "function"
    },
    {
      "inputs": [],
      "name": "totalSupply",
      "outputs": [
        {
          "internalType": "uint256",
          "name": "",
          "type": "uint256"
        }
      ],
      "stateMutability": "view",
      "type": "function"
    },
    {
      "inputs": [
        {
          "internalType": "address",
          "name": "to",
          "type": "address"
        },
        {
          "internalType": "uint256",
          "name": "value",
          "type": "uint256"
        }
      ],
      "name": "transfer",
      "outputs": [
        {
          "internalType": "bool",
          "name": "",
          "type": "bool"
        }
      ],
      "stateMutability": "nonpayable",
      "type": "function"
    },
    {
      "inputs": [
        {
          "internalType": "address",
          "name": "from",
          "type": "address"
        },
        {
          "internalType": "address",
          "name": "to",
          "type": "address"
        },
        {
          "internalType": "uint256",
          "name": "value",
          "type": "uint256"
        }
      ],
      "name": "transferFrom",
      "outputs": [
        {
          "internalType": "bool",
          "name": "",
          "type": "bool"
        }
      ],
      "stateMutability": "nonpayable",
      "type": "function"
    },
    {
      "inputs": [
        {
          "internalType": "address",
          "name": "newOwner",
          "type": "address"
        }
      ],
      "name": "transferOwnership",
      "outputs": [],
      "stateMutability": "nonpayable",
      "type": "function"
    },
    {
      "inputs": [
        {
          "internalType": "address",
          "name": "addressToBeUnblocked",
          "type": "address"
        }
      ],
      "name": "unblockAddress",
      "outputs": [],
      "stateMutability": "nonpayable",
      "type": "function"
    }
  ],
  "bytecode": "0x610160346200054257601f6200301a38819003918201601f19168301916001600160401b0383118484101762000315578084926020946040528339810103126200054257516001600160a01b0381168103620005425760405190620000648262000547565b6005825264524461746160d81b9081602084015260405191620000878362000547565b600583526020830152604051926200009f8462000547565b60048452631491105560e21b602085015260405192620000bf8462000547565b60018452603160f81b60208501528051906001600160401b038211620003155760035490600182811c9216801562000537575b60208310146200040a5781601f849311620004c2575b50602090601f831160011462000437576000926200042b575b50508160011b916000199060031b1c1916176003555b83516001600160401b0381116200031557600454600181811c9116801562000420575b60208210146200040a57601f8111620003a4575b50602094601f821160011462000337579481929394956000926200032b575b50508160011b916000199060031b1c1916176004555b620001ae8162000563565b610120908152620001bf8462000727565b9161014092835260208151910120938460e0526020815191012093610100948086524660a0526040519060208201927f8b73c3c69bb8fe3d512ecc4cf759cc79239f7b179b0ffacaa9a75d522b39400f8452604083015260608201524660808201523060a082015260a0815260c081019181831060018060401b0384111762000315576040839052815190206080523060c0526001600160a01b03851615620002fe575050600c80546001600160a01b0319908116909155600b80546001600160a01b03958616928116831790915560405194167f8be0079c531659141344cd1fd0a4f28419497f9722a3daafe3b4186f6b6457e0600080a361273a9384620008e0853960805184611611015260a051846116cc015260c051846115db015260e051846116600152518361168601525182610bb101525181610bdb0152f35b631e4fbdf760e01b8252600060c490910152602490fd5b634e487b7160e01b600052604160045260246000fd5b0151905038806200018d565b601f19821695600460005260206000209160005b8881106200038b5750836001959697981062000371575b505050811b01600455620001a3565b015160001960f88460031b161c1916905538808062000362565b919260206001819286850151815501940192016200034b565b60046000527f8a35acfbc15ff81a39ae7d344fd709f28e8600b4aa8c65c6b64bfe7fe36bd19b601f830160051c81016020841062000402575b601f830160051c82018110620003f55750506200016e565b60008155600101620003dd565b5080620003dd565b634e487b7160e01b600052602260045260246000fd5b90607f16906200015a565b01519050388062000121565b600360009081527fc2575a0e9e593c00f959f8c92f12db2869c3395a3b0502d05e2516446f71f85b9350601f198516905b818110620004a957509084600195949392106200048f575b505050811b0160035562000137565b015160001960f88460031b161c1916905538808062000480565b9293602060018192878601518155019501930162000468565b60036000529091507fc2575a0e9e593c00f959f8c92f12db2869c3395a3b0502d05e2516446f71f85b601f840160051c810191602085106200052c575b90601f859493920160051c01905b8181106200051c575062000108565b600081558493506001016200050d565b9091508190620004ff565b91607f1691620000f2565b600080fd5b604081019081106001600160401b038211176200031557604052565b8051602091908281101562000602575090601f825111620005a157808251920151908083106200059257501790565b82600019910360031b1b161790565b90604051809263305a27a960e01b82528060048301528251908160248401526000935b828510620005e8575050604492506000838284010152601f80199101168101030190fd5b8481018201518686016044015293810193859350620005c4565b6001600160401b03811162000315576005928354926001938481811c911680156200071c575b838210146200040a57601f8111620006e5575b5081601f84116001146200067b57509282939183926000946200066f575b50501b916000199060031b1c191617905560ff90565b01519250388062000659565b919083601f1981168760005284600020946000905b88838310620006ca5750505010620006b0575b505050811b01905560ff90565b015160001960f88460031b161c19169055388080620006a3565b85870151885590960195948501948793509081019062000690565b8560005284601f846000209201871c820191601f8601881c015b8281106200070f5750506200063b565b60008155018590620006ff565b90607f169062000628565b805160209081811015620007b55750601f8251116200075457808251920151908083106200059257501790565b90604051809263305a27a960e01b82528060048301528251908160248401526000935b8285106200079b575050604492506000838284010152601f80199101168101030190fd5b848101820151868601604401529381019385935062000777565b906001600160401b0382116200031557600654926001938481811c91168015620008d4575b838210146200040a57601f81116200089a575b5081601f84116001146200082e575092829391839260009462000822575b50501b916000199060031b1c19161760065560ff90565b0151925038806200080b565b919083601f198116600660005284600020946000905b888383106200087f575050501062000865575b505050811b0160065560ff90565b015160001960f88460031b161c1916905538808062000857565b85870151885590960195948501948793509081019062000844565b600660005284601f84600020920160051c820191601f860160051c015b828110620008c7575050620007ed565b60008155018590620008b7565b90607f1690620007da56fe6080604052600436101561001257600080fd5b60003560e01c806306fdde0314610267578063095ea7b31461026257806318160ddd1461025d578063186d9d881461025857806319084810146102535780632176da441461024e57806322ba2e861461024957806323b872dd14610244578063313ce5671461023f5780633644e5151461023a5780633a46b1a81461023557806340c10f191461023057806342263f811461022b5780634bf5d7e914610226578063587cde1e146102215780635c19a95c1461021c5780636fcfff451461021757806370a0823114610212578063715018a61461020d57806379ba5097146102085780637ecebe001461020357806384b0196e146101fe5780638da5cb5b146101f95780638e539e8c146101f45780638f283970146101ef57806391ddadf4146101ea57806395d89b41146101e55780639ab24eb0146101e0578063a9059cbb146101db578063ad2bb1b3146101d6578063c3cda520146101d1578063d505accf146101cc578063dd62ed3e146101c7578063e30c3978146101c2578063f1127ed8146101bd578063f2fde38b146101b85763f851a440146101b357600080fd5b611347565b6112da565b611245565b61121c565b6111c4565b611090565b610fc7565b610f47565b610f21565b610ed8565b610e30565b610e0d565b610da3565b610cba565b610c91565b610b96565b610b5c565b610ad2565b610a6a565b610a31565b6109c9565b6109a7565b61096c565b61091d565b6108f7565b6107a7565b61067b565b610658565b61063c565b610590565b61051f565b6104bf565b6104a1565b610429565b61040b565b6103da565b6102c0565b919082519283825260005b848110610298575050826000602080949584010152601f8019910116010190565b602081830181015184830182015201610277565b9060206102bd92818152019061026c565b90565b346103a9576000806003193601126103a6576040519080600354906102e482611370565b808552916020916001918281169081156103795750600114610321575b61031d8661031181880382611435565b604051918291826102ac565b0390f35b9350600384527fc2575a0e9e593c00f959f8c92f12db2869c3395a3b0502d05e2516446f71f85b5b838510610366575050505081016020016103118261031d38610301565b8054868601840152938201938101610349565b905086955061031d9693506020925061031194915060ff191682840152151560051b820101929338610301565b80fd5b600080fd5b600435906001600160a01b03821682036103a957565b602435906001600160a01b03821682036103a957565b346103a95760403660031901126103a9576104006103f66103ae565b60243590336118ee565b602060405160018152f35b346103a95760003660031901126103a9576020600254604051908152f35b346103a95760203660031901126103a9576104426103ae565b600d546001600160a01b03919082163303610489571661046181611a9d565b507f385b21b54e2348e690dec29e9741026142b02eaabfcc2fcb676cebcb7cd16534600080a2005b60405163041419e360e31b8152336004820152602490fd5b346103a95760003660031901126103a9576020600e54604051908152f35b346103a95760203660031901126103a957600435600e5481101561051a57600e6000527fbb7b4a454dc3493923482f07822329ed19e8244eff582cc204f8554c3620c3fd01546040516001600160a01b039091168152602090f35b6119dc565b346103a9576000806003193601126103a65761053961147f565b600d5460ff8160a01c1661057e5760ff60a01b1916600160a01b17600d557f76105f3d3faca68ca603a3efd3506b75d4e40177c31eb1054ded728be1cae22f8180a180f35b604051630c2dd00960e11b8152600490fd5b346103a95760603660031901126103a9576105a96103ae565b6105b16103c4565b6001600160a01b0382166000908152600160209081526040808320338452909152902060443591905492600184016105fa575b6105ee9350611493565b60405160018152602090f35b82841061061657610611836105ee950333836119a2565b6105e4565b604051637dc7a0d960e11b81523360048201526024810185905260448101849052606490fd5b346103a95760003660031901126103a957602060405160128152f35b346103a95760003660031901126103a95760206106736115d8565b604051908152f35b346103a95760403660031901126103a9576106946103ae565b65ffffffffffff9060243542831680821015610780575060009160018060a01b0316825260096020526106ca60408320916116f2565b9281549383918560058111610728575b5050936106eb9161031d9584611d18565b8061070d5750505b6040516001600160d01b0390911681529081906020820190565b9161071a6020929361173a565b92815220015460301c6106f3565b61073481949294611b6f565b810390811161077b5761031d966106eb94868852808360208a20015416908516106000146107695750915b91958193506106da565b92915061077590611749565b9061075f565b611724565b604051637669fc0f60e11b8152600481019290925265ffffffffffff166024820152604490fd5b346103a9576040806003193601126103a9576107c16103ae565b602435906107cd61147f565b60ff600d5460a01c166108e6576001600160a01b03811680156108ce5760008052600f6020527ff4803e074bd026baaf6ed2e288c9515f68c72fb7216eebdd7cae1718a53ec375546108b75761082d61082884600254611757565b600255565b6001600160a01b038216600090815260208181526040822080548601905585518581527fddf252ad1be2c89b69c2b068fc378daa952ba7f163c4a11628f55a4df523b3ef9190a36002546001600160d01b0381116108915761088f838361233a565b005b8351630e58ae9360e11b815260048101919091526001600160d01b036024820152604490fd5b8351630877776160e11b8152336004820152602490fd5b835163ec442f0560e01b815260006004820152602490fd5b8251630c2dd00960e11b8152600490fd5b346103a95760003660031901126103a957602060ff600d5460a01c166040519015158152f35b346103a95760003660031901126103a95761031d60405161093d816113c0565b600e81526d06d6f64653d74696d657374616d760941b602082015260405191829160208352602083019061026c565b346103a95760203660031901126103a95760206001600160a01b03806109906103ae565b166000526008825260406000205416604051908152f35b346103a95760203660031901126103a95761088f6109c36103ae565b33611764565b346103a95760203660031901126103a9576001600160a01b036109ea6103ae565b16600052600960205260406000205463ffffffff90818111610a125760209160405191168152f35b604490604051906306dfcc6560e41b8252602060048301526024820152fd5b346103a95760203660031901126103a9576020610673610a4f6103ae565b6001600160a01b031660009081526020819052604090205490565b346103a9576000806003193601126103a657610a8461147f565b600c80546001600160a01b0319908116909155600b8054918216905581906001600160a01b03167f8be0079c531659141344cd1fd0a4f28419497f9722a3daafe3b4186f6b6457e08280a380f35b346103a9576000806003193601126103a657600c546001600160a01b033381831603610b44576bffffffffffffffffffffffff60a01b809216600c55600b54913390831617600b553391167f8be0079c531659141344cd1fd0a4f28419497f9722a3daafe3b4186f6b6457e08380a380f35b60405163118cdaa760e01b8152336004820152602490fd5b346103a95760203660031901126103a9576001600160a01b03610b7d6103ae565b1660005260076020526020604060002054604051908152f35b346103a9576000806003193601126103a657610c3490610bd57f0000000000000000000000000000000000000000000000000000000000000000611eca565b90610bff7f0000000000000000000000000000000000000000000000000000000000000000611fcb565b9060405191610c0d836113e1565b818352610c42602091604051968796600f60f81b885260e0602089015260e088019061026c565b90868203604088015261026c565b904660608601523060808601528260a086015284820360c0860152602080855193848152019401925b828110610c7a57505050500390f35b835185528695509381019392810192600101610c6b565b346103a95760003660031901126103a957600b546040516001600160a01b039091168152602090f35b346103a95760203660031901126103a95765ffffffffffff600435428216808210156107805750610cea906116f2565b600a54906000908260058111610d4c575b50610d069350611caf565b80610d235750602060005b6040516001600160d01b039091168152f35b610d2e60209161173a565b600a6000526000805160206126e5833981519152015460301c610d11565b9092610d5782611b6f565b820391821161077b57610d0694600a60005280836000805160206126e583398151915201541690851610600014610d915750915b38610cfb565b929150610d9d90611749565b90610d8b565b346103a95760203660031901126103a957610dbc6103ae565b610dc461147f565b600d80546001600160a01b039283166001600160a01b0319821681179092559091167f7e644d79422f17c01e4894b5f4f588d331ebfa28653d42ae832dc59e38c9798f600080a3005b346103a95760003660031901126103a957602060405165ffffffffffff42168152f35b346103a9576000806003193601126103a657604051908060045490610e5482611370565b808552916020916001918281169081156103795750600114610e805761031d8661031181880382611435565b9350600484527f8a35acfbc15ff81a39ae7d344fd709f28e8600b4aa8c65c6b64bfe7fe36bd19b5b838510610ec5575050505081016020016103118261031d38610301565b8054868601840152938201938101610ea8565b346103a95760203660031901126103a9576001600160a01b03610ef96103ae565b166000526009602052602060018060d01b03610f18604060002061182e565b16604051908152f35b346103a95760403660031901126103a957610400610f3d6103ae565b6024359033611493565b346103a95760203660031901126103a957610f606103ae565b600d546001600160a01b039190821633036104895716610f7f8161208b565b507f71fa9c99da9552de60a9ccf693f5a91456cbb8c205c8e532b1f55339903543cf600080a2005b6064359060ff821682036103a957565b6084359060ff821682036103a957565b346103a95760c03660031901126103a957610fe06103ae565b60443590602435610fef610fa7565b8342116110775761106b61088f94611072926040519060208201927fe48329057bfd03d55e49b547132e39cffd9c1820ad7b9d4c5307691425d15adf845260018060a01b0388166040840152866060840152608083015260808252611053826113fd565b61106660a435936084359351902061185a565b611880565b9182611898565b611764565b604051632341d78760e11b815260048101859052602490fd5b346103a95760e03660031901126103a9576110a96103ae565b6110b16103c4565b604435906064356110c0610fb7565b8142116111ab576001600160a01b0385811660008181526007602090815260409182902080546001810190915582517f6e71edae12b1b97f4d1f60370fef10105fa2faae0126114a169c64845d6126c99281019283529283019390935292861660608201526080810187905260a081019190915260c08082019490945292835261116492909161115160e083611435565b61106660c4359360a4359351902061185a565b6001600160a01b0384811690821603611181575061088f926118ee565b6040516325c0072360e11b81526001600160a01b0391821660048201529084166024820152604490fd5b60405163313c898160e11b815260048101839052602490fd5b346103a95760403660031901126103a95760206112136111e26103ae565b6111ea6103c4565b6001600160a01b0391821660009081526001855260408082209290931681526020919091522090565b54604051908152f35b346103a95760003660031901126103a957600c546040516001600160a01b039091168152602090f35b346103a95760403660031901126103a95761125e6103ae565b60243563ffffffff811681036103a9576112ae6112b491604093611280611466565b50611289611466565b506001600160a01b0316600090815260096020528490206112a8611466565b50611a29565b50612239565b8151815165ffffffffffff1681526020918201516001600160d01b031691810191909152f35b346103a95760203660031901126103a9576112f36103ae565b6112fb61147f565b600c80546001600160a01b0319166001600160a01b03928316908117909155600b549091167f38d16b8cac22d99fc7c124b9cd0de2d3fa1faef420bfe791d8c362d765e22700600080a3005b346103a95760003660031901126103a957600d546040516001600160a01b039091168152602090f35b90600182811c921680156113a0575b602083101461138a57565b634e487b7160e01b600052602260045260246000fd5b91607f169161137f565b634e487b7160e01b600052604160045260246000fd5b6040810190811067ffffffffffffffff8211176113dc57604052565b6113aa565b6020810190811067ffffffffffffffff8211176113dc57604052565b60a0810190811067ffffffffffffffff8211176113dc57604052565b60c0810190811067ffffffffffffffff8211176113dc57604052565b90601f8019910116810190811067ffffffffffffffff8211176113dc57604052565b60405190611464826113c0565b565b60405190611473826113c0565b60006020838281520152565b600b546001600160a01b03163303610b4457565b6001600160a01b03808216949392919085156115bf57821680156115a6576114c886600052600f602052604060002054151590565b61158e576001600160a01b0382166000908152602081905260409020549584871061155f57846114649697036115108460018060a01b03166000526000602052604060002090565b556001600160a01b0384166000908152602081815260409182902080548801905590518681527fddf252ad1be2c89b69c2b068fc378daa952ba7f163c4a11628f55a4df523b3ef9190a36123b8565b60405163391434e360e21b81526001600160a01b03841660048201526024810188905260448101869052606490fd5b604051630877776160e11b8152336004820152602490fd5b60405163ec442f0560e01b815260006004820152602490fd5b604051634b637e8f60e11b815260006004820152602490fd5b307f00000000000000000000000000000000000000000000000000000000000000006001600160a01b031614806116c9575b15611633577f000000000000000000000000000000000000000000000000000000000000000090565b60405160208101907f8b73c3c69bb8fe3d512ecc4cf759cc79239f7b179b0ffacaa9a75d522b39400f82527f000000000000000000000000000000000000000000000000000000000000000060408201527f000000000000000000000000000000000000000000000000000000000000000060608201524660808201523060a082015260a081526116c381611419565b51902090565b507f0000000000000000000000000000000000000000000000000000000000000000461461160a565b65ffffffffffff90818111611705571690565b604490604051906306dfcc6560e41b8252603060048301526024820152fd5b634e487b7160e01b600052601160045260246000fd5b60001981019190821161077b57565b906001820180921161077b57565b9190820180921161077b57565b6001600160a01b03818116600081815260086020526040812080548685166001600160a01b031982168117909255611464969416946117e19390928691907f3134e8a2e6d97e929a7e54011ea5485d7d196dd5f0ba4d4ef95803e8e3fc257f9080a46001600160a01b031660009081526020819052604090205490565b91611d79565b600a54806117f55750600090565b8060001981011161077b57600a6000527fc65a7bb8d6351c1cf70c95a316cc6a92839c986682d98bc35f958f4883f9d2a7015460301c90565b80548061183c575050600090565b60001991818381011161077b57600052602060002001015460301c90565b6042906118656115d8565b906040519161190160f01b8352600283015260228201522090565b916102bd939161188f936120fc565b909291926121ac565b6001600160a01b038116600090815260076020526040902080546001810190915590918190036118c6575050565b6040516301d4b62360e61b81526001600160a01b039092166004830152602482015260449150fd5b6001600160a01b03808216929190831561198957821693841561197057806119667f8c5be1e5ebec7d5bd14f71427d1e84f3dd0314c0f7b2291e5b200ac8c7c3b9259461194f60209560018060a01b03166000526001602052604060002090565b9060018060a01b0316600052602052604060002090565b55604051908152a3565b604051634a1406b160e11b815260006004820152602490fd5b60405163e602df0560e01b815260006004820152602490fd5b906001600160a01b0380831615611989578116156119705761194f6119d99260018060a01b03166000526001602052604060002090565b55565b634e487b7160e01b600052603260045260246000fd5b600e5481101561051a57600e6000527fbb7b4a454dc3493923482f07822329ed19e8244eff582cc204f8554c3620c3fd0190600090565b805482101561051a5760005260206000200190600090565b600e548015611a87576000198101908082101561051a577fbb7b4a454dc3493923482f07822329ed19e8244eff582cc204f8554c3620c3fc600091600e83520155600e55565b634e487b7160e01b600052603160045260246000fd5b6000818152600f60205260409020548015611b4857600019918183019180831161077b57600e5493840193841161077b578383600095611af89503611afe575b505050611ae8611a41565b600052600f602052604060002090565b55600190565b611ae8611b2691611b1e611b14611b3f956119f2565b90549060031b1c90565b9283916119f2565b90919082549060031b91821b91600019901b1916179055565b55388080611add565b5050600090565b8115611b59570490565b634e487b7160e01b600052601260045260246000fd5b8015611ca95780611c42611c3b611c31611c27611c1d611c13611c09611bff60016102bd9a6000908b60801c80611c9d575b508060401c80611c90575b508060201c80611c83575b508060101c80611c76575b508060081c80611c69575b508060041c80611c5c575b508060021c80611c4f575b50821c611c48575b811c1b611bf8818b611b4f565b0160011c90565b611bf8818a611b4f565b611bf88189611b4f565b611bf88188611b4f565b611bf88187611b4f565b611bf88186611b4f565b611bf88185611b4f565b8092611b4f565b9061225d565b8101611beb565b6002915091019038611be3565b6004915091019038611bd8565b6008915091019038611bcd565b6010915091019038611bc2565b6020915091019038611bb7565b6040915091019038611bac565b91505060809038611ba1565b50600090565b905b828110611cbd57505090565b90918082169080831860011c820180921161077b57600a60005265ffffffffffff80836000805160206126e583398151915201541690851610600014611d065750915b90611cb1565b929150611d1290611749565b90611d00565b91905b838210611d285750505090565b9091928083169080841860011c820180921161077b5760008581526020902082015465ffffffffffff9081169084161015611d675750925b9190611d1b565b939250611d7390611749565b91611d60565b6001600160a01b03808316939291908116908185141580611ec1575b611da1575b5050505050565b81611e26575b505082611db6575b8080611d9a565b6001600160a01b031660009081526009602052604090207fdec2bacdd2f05b59de34da9b523dff8be42e5e38e818c82fdb0bae774387a72491611e0391611dfd909161226f565b906122a2565b604080516001600160d01b039384168152919092166020820152a2388080611daf565b6001600160a01b03166000908152600960205260409020611e468461226f565b6001600160d01b03908180611e5a8561182e565b169116900381811161077b57611e9e611eb7917fdec2bacdd2f05b59de34da9b523dff8be42e5e38e818c82fdb0bae774387a7249465ffffffffffff421690612602565b6040805192851683529316602082015291829190820190565b0390a23880611da7565b50831515611d95565b60ff8114611f085760ff811690601f8211611ef65760405191611eec836113c0565b8252602082015290565b604051632cd44ac360e21b8152600490fd5b50604051600554816000611f1b83611370565b80835292602090600190818116908115611fa75750600114611f46575b50506102bd92500382611435565b91509260056000527f036b6384b5eca791c62761152d0c79bb0604c104a5fb6f4eb0703f3154bb3db0936000925b828410611f8f57506102bd9450505081016020013880611f38565b85548785018301529485019486945092810192611f74565b915050602092506102bd94915060ff191682840152151560051b8201013880611f38565b60ff8114611fed5760ff811690601f8211611ef65760405191611eec836113c0565b5060405160065481600061200083611370565b80835292602090600190818116908115611fa7575060011461202a5750506102bd92500382611435565b91509260066000527ff652222313e28459528d920b65115c16c04f3efc82aaedc97be59f3f377c0d3f936000925b82841061207357506102bd9450505081016020013880611f38565b85548785018301529485019486945092810192612058565b80600052600f60205260406000205415600014611ca957600e54600160401b8110156113dc576001810180600e5581101561051a5781907fbb7b4a454dc3493923482f07822329ed19e8244eff582cc204f8554c3620c3fd0155600e5490600052600f602052604060002055600190565b91907f7fffffffffffffffffffffffffffffff5d576e7357a4501ddfe92f46681b20a0841161218057926020929160ff608095604051948552168484015260408301526060820152600092839182805260015afa156121745780516001600160a01b0381161561216b57918190565b50809160019190565b604051903d90823e3d90fd5b50505060009160039190565b6004111561219657565b634e487b7160e01b600052602160045260246000fd5b6121b58161218c565b806121be575050565b6121c78161218c565b600181036121e15760405163f645eedf60e01b8152600490fd5b6121ea8161218c565b6002810361220b5760405163fce698f760e01b815260048101839052602490fd5b8061221760039261218c565b1461221f5750565b6040516335e2f38360e21b81526004810191909152602490fd5b90604051612246816113c0565b915465ffffffffffff8116835260301c6020830152565b908082101561226a575090565b905090565b6001600160d01b0390818111612283571690565b604490604051906306dfcc6560e41b825260d060048301526024820152fd5b906001600160d01b039081806122b78561182e565b1691160190811161077b576122d59165ffffffffffff421690612602565b9091565b6001600160d01b039081806122ec6117e7565b1691160190811161077b576122d59065ffffffffffff42166124da565b6001600160d01b0390818061231c6117e7565b169116900390811161077b576122d59065ffffffffffff42166124da565b906114649161235061234b8361226f565b6122d9565b50506001600160a01b039081169081156123a0575b60086020527f5eff886ea0ce6ca488a3d6e336d6c0f75f46d19b42c06ce5ee98e42c96d256c754600092835260409092205481169116611d79565b6123b16123ac8461226f565b612309565b5050612365565b61146492916001600160a01b03918216919081908315612410575b169182156123fd575b60005260086020528060406000205416916000526040600020541690611d79565b6124096123ac8561226f565b50506123dc565b61241c61234b8661226f565b50506123d3565b600a5490600160401b8210156113dc576001820180600a5582101561051a57600a600052805160209091015160301b65ffffffffffff191665ffffffffffff91909116176000805160206126e583398151915290910155565b8054600160401b8110156113dc5761249991600182018155611a29565b6124c457815160209092015160301b65ffffffffffff191665ffffffffffff92909216919091179055565b634e487b7160e01b600052600060045260246000fd5b600a549192919081156125d85761251361250e6124f68461173a565b600a6000526000805160206126e58339815191520190565b612239565b805165ffffffffffff83811694911684106125c6578560209361258a9561254e612543865165ffffffffffff1690565b65ffffffffffff1690565b0361258e57506125636124f661257c9361173a565b9065ffffffffffff82549181199060301b169116179055565b01516001600160d01b031690565b9190565b90506125c191506125ae6125a0611457565b65ffffffffffff9092168252565b6001600160d01b03871681850152612423565b61257c565b604051632520601d60e01b8152600490fd5b6125fc91506125e86125a0611457565b6001600160d01b0384166020820152612423565b60009190565b8054929392919082156126c05761262b61250e61261e8561173a565b8360005260206000200190565b9061263c825165ffffffffffff1690565b65ffffffffffff848116911681106125c65761258a94602094889261266a612543875165ffffffffffff1690565b0361268d575061257c926126806125639261173a565b9060005260206000200190565b9150506125c1916126ad61269f611457565b65ffffffffffff9093168352565b6001600160d01b0388168286015261247c565b6125fc92506126d061269f611457565b6001600160d01b038516602083015261247c56fec65a7bb8d6351c1cf70c95a316cc6a92839c986682d98bc35f958f4883f9d2a8a26469706673582212208f2590cd2b0e0f81f0e728bf927b2bfb6e949809fe15d7feab5e03c0d7e2445e64736f6c63430008180033",
  "linkReferences": {},
  "deployedLinkReferences": {}
}